{
  "address": "0xCf7Ed3AccA5a467e9e704C703E8D87F634fB0Fc9",
  "abi": [
    {
      "inputs": [
        {
          "internalType": "contract ERC20Mintable",
          "name": "_token",
          "type": "address"
        },
        {
          "internalType": "uint256",
          "name": "_supplyRatePerBlock",
          "type": "uint256"
        }
      ],
      "stateMutability": "nonpayable",
      "type": "constructor"
    },
    {
      "anonymous": false,
      "inputs": [
        {
          "indexed": true,
          "internalType": "address",
          "name": "owner",
          "type": "address"
        },
        {
          "indexed": true,
          "internalType": "address",
          "name": "spender",
          "type": "address"
        },
        {
          "indexed": false,
          "internalType": "uint256",
          "name": "value",
          "type": "uint256"
        }
      ],
      "name": "Approval",
      "type": "event"
    },
    {
      "anonymous": false,
      "inputs": [
        {
          "indexed": true,
          "internalType": "address",
          "name": "from",
          "type": "address"
        },
        {
          "indexed": true,
          "internalType": "address",
          "name": "to",
          "type": "address"
        },
        {
          "indexed": false,
          "internalType": "uint256",
          "name": "value",
          "type": "uint256"
        }
      ],
      "name": "Transfer",
      "type": "event"
    },
    {
      "inputs": [],
      "name": "accrue",
      "outputs": [],
      "stateMutability": "nonpayable",
      "type": "function"
    },
    {
      "inputs": [
        {
          "internalType": "uint256",
          "name": "amount",
          "type": "uint256"
        }
      ],
      "name": "accrueCustom",
      "outputs": [],
      "stateMutability": "nonpayable",
      "type": "function"
    },
    {
      "inputs": [
        {
          "internalType": "address",
          "name": "owner",
          "type": "address"
        },
        {
          "internalType": "address",
          "name": "spender",
          "type": "address"
        }
      ],
      "name": "allowance",
      "outputs": [
        {
          "internalType": "uint256",
          "name": "",
          "type": "uint256"
        }
      ],
      "stateMutability": "view",
      "type": "function"
    },
    {
      "inputs": [
        {
          "internalType": "address",
          "name": "spender",
          "type": "address"
        },
        {
          "internalType": "uint256",
          "name": "amount",
          "type": "uint256"
        }
      ],
      "name": "approve",
      "outputs": [
        {
          "internalType": "bool",
          "name": "",
          "type": "bool"
        }
      ],
      "stateMutability": "nonpayable",
      "type": "function"
    },
    {
      "inputs": [
        {
          "internalType": "address",
          "name": "account",
          "type": "address"
        }
      ],
      "name": "balanceOf",
      "outputs": [
        {
          "internalType": "uint256",
          "name": "",
          "type": "uint256"
        }
      ],
      "stateMutability": "view",
      "type": "function"
    },
    {
      "inputs": [
        {
          "internalType": "address",
          "name": "account",
          "type": "address"
        }
      ],
      "name": "balanceOfUnderlying",
      "outputs": [
        {
          "internalType": "uint256",
          "name": "",
          "type": "uint256"
        }
      ],
      "stateMutability": "view",
      "type": "function"
    },
    {
      "inputs": [
        {
          "internalType": "uint256",
          "name": "amount",
          "type": "uint256"
        }
      ],
      "name": "burn",
      "outputs": [],
      "stateMutability": "nonpayable",
      "type": "function"
    },
    {
      "inputs": [
        {
          "internalType": "uint256",
          "name": "tokens",
          "type": "uint256"
        }
      ],
      "name": "cTokenValueOf",
      "outputs": [
        {
          "internalType": "uint256",
          "name": "",
          "type": "uint256"
        }
      ],
      "stateMutability": "view",
      "type": "function"
    },
    {
      "inputs": [],
      "name": "decimals",
      "outputs": [
        {
          "internalType": "uint8",
          "name": "",
          "type": "uint8"
        }
      ],
      "stateMutability": "view",
      "type": "function"
    },
    {
      "inputs": [
        {
          "internalType": "address",
          "name": "spender",
          "type": "address"
        },
        {
          "internalType": "uint256",
          "name": "subtractedValue",
          "type": "uint256"
        }
      ],
      "name": "decreaseAllowance",
      "outputs": [
        {
          "internalType": "bool",
          "name": "",
          "type": "bool"
        }
      ],
      "stateMutability": "nonpayable",
      "type": "function"
    },
    {
      "inputs": [],
      "name": "exchangeRateCurrent",
      "outputs": [
        {
          "internalType": "uint256",
          "name": "",
          "type": "uint256"
        }
      ],
      "stateMutability": "view",
      "type": "function"
    },
    {
      "inputs": [],
      "name": "getCash",
      "outputs": [
        {
          "internalType": "uint256",
          "name": "",
          "type": "uint256"
        }
      ],
      "stateMutability": "view",
      "type": "function"
    },
    {
      "inputs": [
        {
          "internalType": "address",
          "name": "spender",
          "type": "address"
        },
        {
          "internalType": "uint256",
          "name": "addedValue",
          "type": "uint256"
        }
      ],
      "name": "increaseAllowance",
      "outputs": [
        {
          "internalType": "bool",
          "name": "",
          "type": "bool"
        }
      ],
      "stateMutability": "nonpayable",
      "type": "function"
    },
    {
      "inputs": [
        {
          "internalType": "uint256",
          "name": "amount",
          "type": "uint256"
        }
      ],
      "name": "mint",
      "outputs": [
        {
          "internalType": "uint256",
          "name": "",
          "type": "uint256"
        }
      ],
      "stateMutability": "nonpayable",
      "type": "function"
    },
    {
      "inputs": [],
      "name": "name",
      "outputs": [
        {
          "internalType": "string",
          "name": "",
          "type": "string"
        }
      ],
      "stateMutability": "view",
      "type": "function"
    },
    {
      "inputs": [
        {
          "internalType": "uint256",
          "name": "requestedAmount",
          "type": "uint256"
        }
      ],
      "name": "redeemUnderlying",
      "outputs": [
        {
          "internalType": "uint256",
          "name": "",
          "type": "uint256"
        }
      ],
      "stateMutability": "nonpayable",
      "type": "function"
    },
    {
      "inputs": [
        {
          "internalType": "uint256",
          "name": "_supplyRatePerBlock",
          "type": "uint256"
        }
      ],
      "name": "setSupplyRateMantissa",
      "outputs": [],
      "stateMutability": "nonpayable",
      "type": "function"
    },
    {
      "inputs": [],
      "name": "supplyRatePerBlock",
      "outputs": [
        {
          "internalType": "uint256",
          "name": "",
          "type": "uint256"
        }
      ],
      "stateMutability": "view",
      "type": "function"
    },
    {
      "inputs": [],
      "name": "symbol",
      "outputs": [
        {
          "internalType": "string",
          "name": "",
          "type": "string"
        }
      ],
      "stateMutability": "view",
      "type": "function"
    },
    {
      "inputs": [],
      "name": "totalSupply",
      "outputs": [
        {
          "internalType": "uint256",
          "name": "",
          "type": "uint256"
        }
      ],
      "stateMutability": "view",
      "type": "function"
    },
    {
      "inputs": [
        {
          "internalType": "address",
          "name": "recipient",
          "type": "address"
        },
        {
          "internalType": "uint256",
          "name": "amount",
          "type": "uint256"
        }
      ],
      "name": "transfer",
      "outputs": [
        {
          "internalType": "bool",
          "name": "",
          "type": "bool"
        }
      ],
      "stateMutability": "nonpayable",
      "type": "function"
    },
    {
      "inputs": [
        {
          "internalType": "address",
          "name": "sender",
          "type": "address"
        },
        {
          "internalType": "address",
          "name": "recipient",
          "type": "address"
        },
        {
          "internalType": "uint256",
          "name": "amount",
          "type": "uint256"
        }
      ],
      "name": "transferFrom",
      "outputs": [
        {
          "internalType": "bool",
          "name": "",
          "type": "bool"
        }
      ],
      "stateMutability": "nonpayable",
      "type": "function"
    },
    {
      "inputs": [],
      "name": "underlying",
      "outputs": [
        {
          "internalType": "contract ERC20Mintable",
          "name": "",
          "type": "address"
        }
      ],
      "stateMutability": "view",
      "type": "function"
    }
  ],
  "transactionHash": "0x594338a69ac0259db8dbfa9a383d3a625b838431fe77d75e4e94ab1eef029ec1",
  "args": [
    "0x9fE46736679d2D9a65F0992F2272dE9f3c7fa6e0",
    "8888888888888"
  ],
  "solcInputHash": "04bab1880b11cad777b55a50f694e9c0",
  "bytecode": "0x608060405234801561001057600080fd5b5060405161162d38038061162d8339818101604052604081101561003357600080fd5b5080516020909101516001600160a01b038216610097576040805162461bcd60e51b815260206004820152601460248201527f746f6b656e206973206e6f7420646566696e6564000000000000000000000000604482015290519081900360640190fd5b606680546001600160a01b0319166001600160a01b039390931692909217909155606755611563806100ca6000396000f3fe608060405234801561001057600080fd5b506004361061014d5760003560e01c80636f307dc3116100c3578063a457c2d71161007c578063a457c2d7146103d9578063a9059cbb14610405578063ae9d70b014610431578063bd6d894d14610439578063dd62ed3e14610441578063f8ba4cff1461046f5761014d565b80636f307dc31461033057806370a08231146103545780637dabc3ce1461037a578063852a12e31461039757806395d89b41146103b4578063a0712d68146103bc5761014d565b80633950935111610115578063395093511461027d5780633af9e669146102a95780633b1d21a2146102cf57806342966c68146102d75780634c1fb633146102f65780635a2c37ca146103135761014d565b806306fdde0314610152578063095ea7b3146101cf57806318160ddd1461020f57806323b872dd14610229578063313ce5671461025f575b600080fd5b61015a610477565b6040805160208082528351818301528351919283929083019185019080838360005b8381101561019457818101518382015260200161017c565b50505050905090810190601f1680156101c15780820380516001836020036101000a031916815260200191505b509250505060405180910390f35b6101fb600480360360408110156101e557600080fd5b506001600160a01b03813516906020013561050e565b604080519115158252519081900360200190f35b61021761052c565b60408051918252519081900360200190f35b6101fb6004803603606081101561023f57600080fd5b506001600160a01b03813581169160208101359091169060400135610532565b6102676105b9565b6040805160ff9092168252519081900360200190f35b6101fb6004803603604081101561029357600080fd5b506001600160a01b0381351690602001356105c2565b610217600480360360208110156102bf57600080fd5b50356001600160a01b0316610610565b61021761062b565b6102f4600480360360208110156102ed57600080fd5b50356106a7565b005b6102f46004803603602081101561030c57600080fd5b503561072a565b6102f46004803603602081101561032957600080fd5b503561077e565b610338610783565b604080516001600160a01b039092168252519081900360200190f35b6102176004803603602081101561036a57600080fd5b50356001600160a01b0316610792565b6102176004803603602081101561039057600080fd5b50356107ad565b610217600480360360208110156103ad57600080fd5b50356107c0565b61015a6108ab565b610217600480360360208110156103d257600080fd5b503561090c565b6101fb600480360360408110156103ef57600080fd5b506001600160a01b038135169060200135610aa4565b6101fb6004803603604081101561041b57600080fd5b506001600160a01b038135169060200135610b0c565b610217610b20565b610217610b26565b6102176004803603604081101561045757600080fd5b506001600160a01b0381358116916020013516610bcf565b6102f4610bfa565b60368054604080516020601f60026000196101006001881615020190951694909404938401819004810282018101909252828152606093909290918301828280156105035780601f106104d857610100808354040283529160200191610503565b820191906000526020600020905b8154815290600101906020018083116104e657829003601f168201915b505050505090505b90565b600061052261051b610cd9565b8484610cdd565b5060015b92915050565b60355490565b600061053f848484610dc9565b6105af8461054b610cd9565b6105aa85604051806060016040528060288152602001611477602891396001600160a01b038a16600090815260346020526040812090610589610cd9565b6001600160a01b031681526020810191909152604001600020549190610f26565b610cdd565b5060019392505050565b60385460ff1690565b60006105226105cf610cd9565b846105aa85603460006105e0610cd9565b6001600160a01b03908116825260208083019390935260409182016000908120918c168152925290205490610fbd565b600061052661061e83610792565b610626610b26565b61101e565b606654604080516370a0823160e01b815230600482015290516000926001600160a01b0316916370a08231916024808301926020929190829003018186803b15801561067657600080fd5b505afa15801561068a573d6000803e3d6000fd5b505050506040513d60208110156106a057600080fd5b5051905090565b60665460408051632770a7eb60e21b81523060048201526024810184905290516001600160a01b0390921691639dc29fac916044808201926020929091908290030181600087803b1580156106fb57600080fd5b505af115801561070f573d6000803e3d6000fd5b505050506040513d602081101561072557600080fd5b505050565b606654604080516340c10f1960e01b81523060048201526024810184905290516001600160a01b03909216916340c10f19916044808201926020929091908290030181600087803b1580156106fb57600080fd5b606755565b6066546001600160a01b031681565b6001600160a01b031660009081526033602052604090205490565b6000610526826107bb610b26565b611047565b6000806107cc836107ad565b90506107d83382611068565b6066546040805163a9059cbb60e01b81523360048201526024810186905290516001600160a01b039092169163a9059cbb916044808201926020929091908290030181600087803b15801561082c57600080fd5b505af1158015610840573d6000803e3d6000fd5b505050506040513d602081101561085657600080fd5b50516108a5576040805162461bcd60e51b8152602060048201526019602482015278636f756c64206e6f74207472616e7366657220746f6b656e7360381b604482015290519081900360640190fd5b50919050565b60378054604080516020601f60026000196101006001881615020190951694909404938401819004810282018101909252828152606093909290918301828280156105035780601f106104d857610100808354040283529160200191610503565b60008061091761052c565b6109225750816109be565b606654604080516370a0823160e01b815230600482015290516000926109a79287926001600160a01b03909216916370a0823191602480820192602092909190829003018186803b15801561097657600080fd5b505afa15801561098a573d6000803e3d6000fd5b505050506040513d60208110156109a057600080fd5b5051611164565b90506109ba6109b461052c565b8261101e565b9150505b6109c83382611179565b606654604080516323b872dd60e01b81523360048201523060248201526044810186905290516001600160a01b03909216916323b872dd916064808201926020929091908290030181600087803b158015610a2257600080fd5b505af1158015610a36573d6000803e3d6000fd5b505050506040513d6020811015610a4c57600080fd5b5051610a9b576040805162461bcd60e51b8152602060048201526019602482015278636f756c64206e6f74207472616e7366657220746f6b656e7360381b604482015290519081900360640190fd5b50600092915050565b6000610522610ab1610cd9565b846105aa856040518060600160405280602581526020016115096025913960346000610adb610cd9565b6001600160a01b03908116825260208083019390935260409182016000908120918d16815292529020549190610f26565b6000610522610b19610cd9565b8484610dc9565b60675490565b6000610b3061052c565b610b435750670de0b6b3a764000061050b565b606654604080516370a0823160e01b81523060048201529051610bc8926001600160a01b0316916370a08231916024808301926020929190829003018186803b158015610b8f57600080fd5b505afa158015610ba3573d6000803e3d6000fd5b505050506040513d6020811015610bb957600080fd5b5051610bc361052c565b611164565b905061050b565b6001600160a01b03918216600090815260346020908152604080832093909416825291909152205490565b606654604080516370a0823160e01b815230600482015290516000926064926001600160a01b03909116916370a0823191602480820192602092909190829003018186803b158015610c4b57600080fd5b505afa158015610c5f573d6000803e3d6000fd5b505050506040513d6020811015610c7557600080fd5b505160780281610c8157fe5b606654604080516340c10f1960e01b8152306004820152939092046024840181905291519193506001600160a01b0316916340c10f199160448083019260209291908290030181600087803b1580156106fb57600080fd5b3390565b6001600160a01b038316610d225760405162461bcd60e51b81526004018080602001828103825260248152602001806114e56024913960400191505060405180910390fd5b6001600160a01b038216610d675760405162461bcd60e51b815260040180806020018281038252602281526020018061140e6022913960400191505060405180910390fd5b6001600160a01b03808416600081815260346020908152604080832094871680845294825291829020859055815185815291517f8c5be1e5ebec7d5bd14f71427d1e84f3dd0314c0f7b2291e5b200ac8c7c3b9259281900390910190a3505050565b6001600160a01b038316610e0e5760405162461bcd60e51b81526004018080602001828103825260258152602001806114c06025913960400191505060405180910390fd5b6001600160a01b038216610e535760405162461bcd60e51b81526004018080602001828103825260238152602001806113c96023913960400191505060405180910390fd5b610e5e838383610725565b610e9b81604051806060016040528060268152602001611430602691396001600160a01b0386166000908152603360205260409020549190610f26565b6001600160a01b038085166000908152603360205260408082209390935590841681522054610eca9082610fbd565b6001600160a01b0380841660008181526033602090815260409182902094909455805185815290519193928716927fddf252ad1be2c89b69c2b068fc378daa952ba7f163c4a11628f55a4df523b3ef92918290030190a3505050565b60008184841115610fb55760405162461bcd60e51b81526004018080602001828103825283818151815260200191508051906020019080838360005b83811015610f7a578181015183820152602001610f62565b50505050905090810190601f168015610fa75780820380516001836020036101000a031916815260200191505b509250505060405180910390fd5b505050900390565b600082820183811015611017576040805162461bcd60e51b815260206004820152601b60248201527f536166654d6174683a206164646974696f6e206f766572666c6f770000000000604482015290519081900360640190fd5b9392505050565b60008061102b838561126b565b905061103f81670de0b6b3a76400006112c4565b949350505050565b60008061105c670de0b6b3a76400008561126b565b905061103f81846112c4565b6001600160a01b0382166110ad5760405162461bcd60e51b815260040180806020018281038252602181526020018061149f6021913960400191505060405180910390fd5b6110b982600083610725565b6110f6816040518060600160405280602281526020016113ec602291396001600160a01b0385166000908152603360205260409020549190610f26565b6001600160a01b03831660009081526033602052604090205560355461111c9082611306565b6035556040805182815290516000916001600160a01b038516917fddf252ad1be2c89b69c2b068fc378daa952ba7f163c4a11628f55a4df523b3ef9181900360200190a35050565b60008061105c84670de0b6b3a764000061126b565b6001600160a01b0382166111d4576040805162461bcd60e51b815260206004820152601f60248201527f45524332303a206d696e7420746f20746865207a65726f206164647265737300604482015290519081900360640190fd5b6111e060008383610725565b6035546111ed9082610fbd565b6035556001600160a01b0382166000908152603360205260409020546112139082610fbd565b6001600160a01b03831660008181526033602090815260408083209490945583518581529351929391927fddf252ad1be2c89b69c2b068fc378daa952ba7f163c4a11628f55a4df523b3ef9281900390910190a35050565b60008261127a57506000610526565b8282028284828161128757fe5b04146110175760405162461bcd60e51b81526004018080602001828103825260218152602001806114566021913960400191505060405180910390fd5b600061101783836040518060400160405280601a81526020017f536166654d6174683a206469766973696f6e206279207a65726f000000000000815250611363565b60008282111561135d576040805162461bcd60e51b815260206004820152601e60248201527f536166654d6174683a207375627472616374696f6e206f766572666c6f770000604482015290519081900360640190fd5b50900390565b600081836113b25760405162461bcd60e51b8152602060048201818152835160248401528351909283926044909101919085019080838360008315610f7a578181015183820152602001610f62565b5060008385816113be57fe5b049594505050505056fe45524332303a207472616e7366657220746f20746865207a65726f206164647265737345524332303a206275726e20616d6f756e7420657863656564732062616c616e636545524332303a20617070726f766520746f20746865207a65726f206164647265737345524332303a207472616e7366657220616d6f756e7420657863656564732062616c616e6365536166654d6174683a206d756c7469706c69636174696f6e206f766572666c6f7745524332303a207472616e7366657220616d6f756e74206578636565647320616c6c6f77616e636545524332303a206275726e2066726f6d20746865207a65726f206164647265737345524332303a207472616e736665722066726f6d20746865207a65726f206164647265737345524332303a20617070726f76652066726f6d20746865207a65726f206164647265737345524332303a2064656372656173656420616c6c6f77616e63652062656c6f77207a65726fa2646970667358221220549e09e1f5a7ff92326fbbd307eb26f992d9b28ebcde873edb8b743b0f1b4b7364736f6c634300060c0033",
  "devdoc": {
    "kind": "dev",
    "methods": {
      "allowance(address,address)": {
        "details": "See {IERC20-allowance}."
      },
      "approve(address,uint256)": {
        "details": "See {IERC20-approve}. Requirements: - `spender` cannot be the zero address."
      },
      "balanceOf(address)": {
        "details": "See {IERC20-balanceOf}."
      },
      "decimals()": {
        "details": "Returns the number of decimals used to get its user representation. For example, if `decimals` equals `2`, a balance of `505` tokens should be displayed to a user as `5,05` (`505 / 10 ** 2`). Tokens usually opt for a value of 18, imitating the relationship between Ether and Wei. This is the value {ERC20} uses, unless {_setupDecimals} is called. NOTE: This information is only used for _display_ purposes: it in no way affects any of the arithmetic of the contract, including {IERC20-balanceOf} and {IERC20-transfer}."
      },
      "decreaseAllowance(address,uint256)": {
        "details": "Atomically decreases the allowance granted to `spender` by the caller. This is an alternative to {approve} that can be used as a mitigation for problems described in {IERC20-approve}. Emits an {Approval} event indicating the updated allowance. Requirements: - `spender` cannot be the zero address. - `spender` must have allowance for the caller of at least `subtractedValue`."
      },
      "increaseAllowance(address,uint256)": {
        "details": "Atomically increases the allowance granted to `spender` by the caller. This is an alternative to {approve} that can be used as a mitigation for problems described in {IERC20-approve}. Emits an {Approval} event indicating the updated allowance. Requirements: - `spender` cannot be the zero address."
      },
      "name()": {
        "details": "Returns the name of the token."
      },
      "symbol()": {
        "details": "Returns the symbol of the token, usually a shorter version of the name."
      },
      "totalSupply()": {
        "details": "See {IERC20-totalSupply}."
      },
      "transfer(address,uint256)": {
        "details": "See {IERC20-transfer}. Requirements: - `recipient` cannot be the zero address. - the caller must have a balance of at least `amount`."
      },
      "transferFrom(address,address,uint256)": {
        "details": "See {IERC20-transferFrom}. Emits an {Approval} event indicating the updated allowance. This is not required by the EIP. See the note at the beginning of {ERC20}. Requirements: - `sender` and `recipient` cannot be the zero address. - `sender` must have a balance of at least `amount`. - the caller must have allowance for ``sender``'s tokens of at least `amount`."
      }
    },
    "version": 1
  },
  "userdoc": {
    "kind": "user",
    "methods": {},
    "version": 1
  },
  "storageLayout": {
    "storage": [
      {
        "astId": 1397,
        "contract": "contracts/test/CTokenMock.sol:CTokenMock",
        "label": "_initialized",
        "offset": 0,
        "slot": "0",
        "type": "t_bool"
      },
      {
        "astId": 1400,
        "contract": "contracts/test/CTokenMock.sol:CTokenMock",
        "label": "_initializing",
        "offset": 1,
        "slot": "0",
        "type": "t_bool"
      },
      {
        "astId": 3750,
        "contract": "contracts/test/CTokenMock.sol:CTokenMock",
        "label": "__gap",
        "offset": 0,
        "slot": "1",
        "type": "t_array(t_uint256)50_storage"
      },
      {
        "astId": 1476,
        "contract": "contracts/test/CTokenMock.sol:CTokenMock",
        "label": "_balances",
        "offset": 0,
        "slot": "51",
        "type": "t_mapping(t_address,t_uint256)"
      },
      {
        "astId": 1482,
        "contract": "contracts/test/CTokenMock.sol:CTokenMock",
        "label": "_allowances",
        "offset": 0,
        "slot": "52",
        "type": "t_mapping(t_address,t_mapping(t_address,t_uint256))"
      },
      {
        "astId": 1484,
        "contract": "contracts/test/CTokenMock.sol:CTokenMock",
        "label": "_totalSupply",
        "offset": 0,
        "slot": "53",
        "type": "t_uint256"
      },
      {
        "astId": 1486,
        "contract": "contracts/test/CTokenMock.sol:CTokenMock",
        "label": "_name",
        "offset": 0,
        "slot": "54",
        "type": "t_string_storage"
      },
      {
        "astId": 1488,
        "contract": "contracts/test/CTokenMock.sol:CTokenMock",
        "label": "_symbol",
        "offset": 0,
        "slot": "55",
        "type": "t_string_storage"
      },
      {
        "astId": 1490,
        "contract": "contracts/test/CTokenMock.sol:CTokenMock",
        "label": "_decimals",
        "offset": 0,
        "slot": "56",
        "type": "t_uint8"
      },
      {
        "astId": 1985,
        "contract": "contracts/test/CTokenMock.sol:CTokenMock",
        "label": "__gap",
        "offset": 0,
        "slot": "57",
        "type": "t_array(t_uint256)44_storage"
      },
      {
        "astId": 17571,
        "contract": "contracts/test/CTokenMock.sol:CTokenMock",
        "label": "ownerTokenAmounts",
        "offset": 0,
        "slot": "101",
        "type": "t_mapping(t_address,t_uint256)"
      },
      {
        "astId": 17573,
        "contract": "contracts/test/CTokenMock.sol:CTokenMock",
        "label": "underlying",
        "offset": 0,
        "slot": "102",
        "type": "t_contract(ERC20Mintable)18780"
      },
      {
        "astId": 17575,
        "contract": "contracts/test/CTokenMock.sol:CTokenMock",
        "label": "__supplyRatePerBlock",
        "offset": 0,
        "slot": "103",
        "type": "t_uint256"
      }
    ],
    "types": {
      "t_address": {
        "encoding": "inplace",
        "label": "address",
        "numberOfBytes": "20"
      },
      "t_array(t_uint256)44_storage": {
        "base": "t_uint256",
        "encoding": "inplace",
        "label": "uint256[44]",
        "numberOfBytes": "1408"
      },
      "t_array(t_uint256)50_storage": {
        "base": "t_uint256",
        "encoding": "inplace",
        "label": "uint256[50]",
        "numberOfBytes": "1600"
      },
      "t_bool": {
        "encoding": "inplace",
        "label": "bool",
        "numberOfBytes": "1"
      },
      "t_contract(ERC20Mintable)18780": {
        "encoding": "inplace",
        "label": "contract ERC20Mintable",
        "numberOfBytes": "20"
      },
      "t_mapping(t_address,t_mapping(t_address,t_uint256))": {
        "encoding": "mapping",
        "key": "t_address",
        "label": "mapping(address => mapping(address => uint256))",
        "numberOfBytes": "32",
        "value": "t_mapping(t_address,t_uint256)"
      },
      "t_mapping(t_address,t_uint256)": {
        "encoding": "mapping",
        "key": "t_address",
        "label": "mapping(address => uint256)",
        "numberOfBytes": "32",
        "value": "t_uint256"
      },
      "t_string_storage": {
        "encoding": "bytes",
        "label": "string",
        "numberOfBytes": "32"
      },
      "t_uint256": {
        "encoding": "inplace",
        "label": "uint256",
        "numberOfBytes": "32"
      },
      "t_uint8": {
        "encoding": "inplace",
        "label": "uint8",
        "numberOfBytes": "1"
      }
    }
  }
}