{
  "address": "0x0165878A594ca255338adfa4d48449f69242Eb8F",
  "abi": [
    {
      "anonymous": false,
      "inputs": [
        {
          "indexed": true,
          "internalType": "address",
          "name": "source",
          "type": "address"
        },
        {
          "indexed": true,
          "internalType": "address",
          "name": "measure",
          "type": "address"
        },
        {
          "indexed": true,
          "internalType": "address",
          "name": "dripToken",
          "type": "address"
        },
        {
          "indexed": false,
          "internalType": "uint256",
          "name": "dripRatePerSecond",
          "type": "uint256"
        }
      ],
      "name": "BalanceDripActivated",
      "type": "event"
    },
    {
      "anonymous": false,
      "inputs": [
        {
          "indexed": true,
          "internalType": "address",
          "name": "source",
          "type": "address"
        },
        {
          "indexed": true,
          "internalType": "address",
          "name": "measure",
          "type": "address"
        },
        {
          "indexed": true,
          "internalType": "address",
          "name": "dripToken",
          "type": "address"
        }
      ],
      "name": "BalanceDripDeactivated",
      "type": "event"
    },
    {
      "anonymous": false,
      "inputs": [
        {
          "indexed": true,
          "internalType": "address",
          "name": "source",
          "type": "address"
        },
        {
          "indexed": true,
          "internalType": "address",
          "name": "measure",
          "type": "address"
        },
        {
          "indexed": true,
          "internalType": "address",
          "name": "dripToken",
          "type": "address"
        },
        {
          "indexed": false,
          "internalType": "address",
          "name": "user",
          "type": "address"
        },
        {
          "indexed": false,
          "internalType": "uint256",
          "name": "amount",
          "type": "uint256"
        }
      ],
      "name": "BalanceDripDripped",
      "type": "event"
    },
    {
      "anonymous": false,
      "inputs": [
        {
          "indexed": true,
          "internalType": "address",
          "name": "source",
          "type": "address"
        },
        {
          "indexed": true,
          "internalType": "address",
          "name": "measure",
          "type": "address"
        },
        {
          "indexed": true,
          "internalType": "address",
          "name": "dripToken",
          "type": "address"
        },
        {
          "indexed": false,
          "internalType": "uint256",
          "name": "dripRatePerSecond",
          "type": "uint256"
        }
      ],
      "name": "BalanceDripRateSet",
      "type": "event"
    },
    {
      "anonymous": false,
      "inputs": [
        {
          "indexed": true,
          "internalType": "address",
          "name": "operator",
          "type": "address"
        },
        {
          "indexed": true,
          "internalType": "address",
          "name": "dripToken",
          "type": "address"
        },
        {
          "indexed": true,
          "internalType": "address",
          "name": "user",
          "type": "address"
        },
        {
          "indexed": false,
          "internalType": "uint256",
          "name": "amount",
          "type": "uint256"
        }
      ],
      "name": "DripTokenClaimed",
      "type": "event"
    },
    {
      "anonymous": false,
      "inputs": [
        {
          "indexed": true,
          "internalType": "address",
          "name": "dripToken",
          "type": "address"
        },
        {
          "indexed": true,
          "internalType": "address",
          "name": "user",
          "type": "address"
        },
        {
          "indexed": false,
          "internalType": "uint256",
          "name": "amount",
          "type": "uint256"
        }
      ],
      "name": "DripTokenDripped",
      "type": "event"
    },
    {
      "anonymous": false,
      "inputs": [
        {
          "indexed": true,
          "internalType": "address",
          "name": "previousOwner",
          "type": "address"
        },
        {
          "indexed": true,
          "internalType": "address",
          "name": "newOwner",
          "type": "address"
        }
      ],
      "name": "OwnershipTransferred",
      "type": "event"
    },
    {
      "anonymous": false,
      "inputs": [
        {
          "indexed": true,
          "internalType": "address",
          "name": "token",
          "type": "address"
        },
        {
          "indexed": true,
          "internalType": "address",
          "name": "to",
          "type": "address"
        },
        {
          "indexed": false,
          "internalType": "uint256",
          "name": "amount",
          "type": "uint256"
        }
      ],
      "name": "TransferredOut",
      "type": "event"
    },
    {
      "anonymous": false,
      "inputs": [
        {
          "indexed": true,
          "internalType": "address",
          "name": "source",
          "type": "address"
        },
        {
          "indexed": true,
          "internalType": "address",
          "name": "measure",
          "type": "address"
        },
        {
          "indexed": true,
          "internalType": "address",
          "name": "dripToken",
          "type": "address"
        },
        {
          "indexed": false,
          "internalType": "bool",
          "name": "isReferral",
          "type": "bool"
        },
        {
          "indexed": false,
          "internalType": "uint256",
          "name": "periodSeconds",
          "type": "uint256"
        },
        {
          "indexed": false,
          "internalType": "uint256",
          "name": "dripAmount",
          "type": "uint256"
        }
      ],
      "name": "VolumeDripActivated",
      "type": "event"
    },
    {
      "anonymous": false,
      "inputs": [
        {
          "indexed": true,
          "internalType": "address",
          "name": "source",
          "type": "address"
        },
        {
          "indexed": true,
          "internalType": "address",
          "name": "measure",
          "type": "address"
        },
        {
          "indexed": true,
          "internalType": "address",
          "name": "dripToken",
          "type": "address"
        },
        {
          "indexed": false,
          "internalType": "bool",
          "name": "isReferral",
          "type": "bool"
        }
      ],
      "name": "VolumeDripDeactivated",
      "type": "event"
    },
    {
      "anonymous": false,
      "inputs": [
        {
          "indexed": true,
          "internalType": "address",
          "name": "source",
          "type": "address"
        },
        {
          "indexed": true,
          "internalType": "address",
          "name": "measure",
          "type": "address"
        },
        {
          "indexed": true,
          "internalType": "address",
          "name": "dripToken",
          "type": "address"
        },
        {
          "indexed": false,
          "internalType": "bool",
          "name": "isReferral",
          "type": "bool"
        },
        {
          "indexed": false,
          "internalType": "address",
          "name": "user",
          "type": "address"
        },
        {
          "indexed": false,
          "internalType": "uint256",
          "name": "amount",
          "type": "uint256"
        }
      ],
      "name": "VolumeDripDripped",
      "type": "event"
    },
    {
      "anonymous": false,
      "inputs": [
        {
          "indexed": true,
          "internalType": "address",
          "name": "source",
          "type": "address"
        },
        {
          "indexed": true,
          "internalType": "address",
          "name": "measure",
          "type": "address"
        },
        {
          "indexed": true,
          "internalType": "address",
          "name": "dripToken",
          "type": "address"
        },
        {
          "indexed": false,
          "internalType": "bool",
          "name": "isReferral",
          "type": "bool"
        },
        {
          "indexed": false,
          "internalType": "uint32",
          "name": "period",
          "type": "uint32"
        },
        {
          "indexed": false,
          "internalType": "uint256",
          "name": "totalSupply",
          "type": "uint256"
        },
        {
          "indexed": false,
          "internalType": "uint256",
          "name": "drippedTokens",
          "type": "uint256"
        }
      ],
      "name": "VolumeDripPeriodEnded",
      "type": "event"
    },
    {
      "anonymous": false,
      "inputs": [
        {
          "indexed": true,
          "internalType": "address",
          "name": "source",
          "type": "address"
        },
        {
          "indexed": true,
          "internalType": "address",
          "name": "measure",
          "type": "address"
        },
        {
          "indexed": true,
          "internalType": "address",
          "name": "dripToken",
          "type": "address"
        },
        {
          "indexed": false,
          "internalType": "bool",
          "name": "isReferral",
          "type": "bool"
        },
        {
          "indexed": false,
          "internalType": "uint32",
          "name": "period",
          "type": "uint32"
        },
        {
          "indexed": false,
          "internalType": "uint256",
          "name": "dripAmount",
          "type": "uint256"
        },
        {
          "indexed": false,
          "internalType": "uint256",
          "name": "endTime",
          "type": "uint256"
        }
      ],
      "name": "VolumeDripPeriodStarted",
      "type": "event"
    },
    {
      "anonymous": false,
      "inputs": [
        {
          "indexed": true,
          "internalType": "address",
          "name": "source",
          "type": "address"
        },
        {
          "indexed": true,
          "internalType": "address",
          "name": "measure",
          "type": "address"
        },
        {
          "indexed": true,
          "internalType": "address",
          "name": "dripToken",
          "type": "address"
        },
        {
          "indexed": false,
          "internalType": "bool",
          "name": "isReferral",
          "type": "bool"
        },
        {
          "indexed": false,
          "internalType": "uint256",
          "name": "periodSeconds",
          "type": "uint256"
        },
        {
          "indexed": false,
          "internalType": "uint256",
          "name": "dripAmount",
          "type": "uint256"
        }
      ],
      "name": "VolumeDripSet",
      "type": "event"
    },
    {
      "inputs": [
        {
          "internalType": "address",
          "name": "source",
          "type": "address"
        },
        {
          "internalType": "address",
          "name": "measure",
          "type": "address"
        },
        {
          "internalType": "address",
          "name": "dripToken",
          "type": "address"
        },
        {
          "internalType": "uint256",
          "name": "dripRatePerSecond",
          "type": "uint256"
        }
      ],
      "name": "activateBalanceDrip",
      "outputs": [],
      "stateMutability": "nonpayable",
      "type": "function"
    },
    {
      "inputs": [
        {
          "internalType": "address",
          "name": "source",
          "type": "address"
        },
        {
          "internalType": "address",
          "name": "measure",
          "type": "address"
        },
        {
          "internalType": "address",
          "name": "dripToken",
          "type": "address"
        },
        {
          "internalType": "bool",
          "name": "isReferral",
          "type": "bool"
        },
        {
          "internalType": "uint32",
          "name": "periodSeconds",
          "type": "uint32"
        },
        {
          "internalType": "uint112",
          "name": "dripAmount",
          "type": "uint112"
        },
        {
          "internalType": "uint32",
          "name": "endTime",
          "type": "uint32"
        }
      ],
      "name": "activateVolumeDrip",
      "outputs": [],
      "stateMutability": "nonpayable",
      "type": "function"
    },
    {
      "inputs": [
        {
          "internalType": "address",
          "name": "user",
          "type": "address"
        },
        {
          "internalType": "address[]",
          "name": "dripTokens",
          "type": "address[]"
        }
      ],
      "name": "balanceOfClaims",
      "outputs": [
        {
          "components": [
            {
              "internalType": "address",
              "name": "dripToken",
              "type": "address"
            },
            {
              "internalType": "uint256",
              "name": "balance",
              "type": "uint256"
            }
          ],
          "internalType": "struct Comptroller.DripTokenBalance[]",
          "name": "",
          "type": "tuple[]"
        }
      ],
      "stateMutability": "view",
      "type": "function"
    },
    {
      "inputs": [
        {
          "internalType": "address",
          "name": "user",
          "type": "address"
        },
        {
          "internalType": "address",
          "name": "dripToken",
          "type": "address"
        }
      ],
      "name": "balanceOfDrip",
      "outputs": [
        {
          "internalType": "uint256",
          "name": "",
          "type": "uint256"
        }
      ],
      "stateMutability": "view",
      "type": "function"
    },
    {
      "inputs": [
        {
          "internalType": "address",
          "name": "to",
          "type": "address"
        },
        {
          "internalType": "uint256",
          "name": "amount",
          "type": "uint256"
        },
        {
          "internalType": "address",
          "name": "measure",
          "type": "address"
        },
        {
          "internalType": "address",
          "name": "referrer",
          "type": "address"
        }
      ],
      "name": "beforeTokenMint",
      "outputs": [],
      "stateMutability": "nonpayable",
      "type": "function"
    },
    {
      "inputs": [
        {
          "internalType": "address",
          "name": "from",
          "type": "address"
        },
        {
          "internalType": "address",
          "name": "to",
          "type": "address"
        },
        {
          "internalType": "uint256",
          "name": "",
          "type": "uint256"
        },
        {
          "internalType": "address",
          "name": "measure",
          "type": "address"
        }
      ],
      "name": "beforeTokenTransfer",
      "outputs": [],
      "stateMutability": "nonpayable",
      "type": "function"
    },
    {
      "inputs": [
        {
          "components": [
            {
              "internalType": "address",
              "name": "source",
              "type": "address"
            },
            {
              "internalType": "address",
              "name": "measure",
              "type": "address"
            }
          ],
          "internalType": "struct Comptroller.UpdatePair[]",
          "name": "pairs",
          "type": "tuple[]"
        },
        {
          "internalType": "address",
          "name": "user",
          "type": "address"
        },
        {
          "internalType": "address[]",
          "name": "dripTokens",
          "type": "address[]"
        }
      ],
      "name": "captureClaimsForBalanceDripsForPairs",
      "outputs": [],
      "stateMutability": "nonpayable",
      "type": "function"
    },
    {
      "inputs": [
        {
          "internalType": "address",
          "name": "user",
          "type": "address"
        },
        {
          "internalType": "address",
          "name": "dripToken",
          "type": "address"
        },
        {
          "internalType": "uint256",
          "name": "amount",
          "type": "uint256"
        }
      ],
      "name": "claimDrip",
      "outputs": [],
      "stateMutability": "nonpayable",
      "type": "function"
    },
    {
      "inputs": [
        {
          "internalType": "address",
          "name": "user",
          "type": "address"
        },
        {
          "internalType": "address[]",
          "name": "dripTokens",
          "type": "address[]"
        }
      ],
      "name": "claimDrips",
      "outputs": [],
      "stateMutability": "nonpayable",
      "type": "function"
    },
    {
      "inputs": [
        {
          "internalType": "address",
          "name": "source",
          "type": "address"
        },
        {
          "internalType": "address",
          "name": "measure",
          "type": "address"
        },
        {
          "internalType": "address",
          "name": "dripToken",
          "type": "address"
        },
        {
          "internalType": "address",
          "name": "prevDripToken",
          "type": "address"
        }
      ],
      "name": "deactivateBalanceDrip",
      "outputs": [],
      "stateMutability": "nonpayable",
      "type": "function"
    },
    {
      "inputs": [
        {
          "internalType": "address",
          "name": "source",
          "type": "address"
        },
        {
          "internalType": "address",
          "name": "measure",
          "type": "address"
        },
        {
          "internalType": "address",
          "name": "dripToken",
          "type": "address"
        },
        {
          "internalType": "bool",
          "name": "isReferral",
          "type": "bool"
        },
        {
          "internalType": "address",
          "name": "prevDripToken",
          "type": "address"
        }
      ],
      "name": "deactivateVolumeDrip",
      "outputs": [],
      "stateMutability": "nonpayable",
      "type": "function"
    },
    {
      "inputs": [
        {
          "internalType": "address",
          "name": "source",
          "type": "address"
        },
        {
          "internalType": "address",
          "name": "measure",
          "type": "address"
        }
      ],
      "name": "getActiveBalanceDripTokens",
      "outputs": [
        {
          "internalType": "address[]",
          "name": "",
          "type": "address[]"
        }
      ],
      "stateMutability": "view",
      "type": "function"
    },
    {
      "inputs": [
        {
          "internalType": "address",
          "name": "source",
          "type": "address"
        },
        {
          "internalType": "address",
          "name": "measure",
          "type": "address"
        },
        {
          "internalType": "bool",
          "name": "isReferral",
          "type": "bool"
        }
      ],
      "name": "getActiveVolumeDripTokens",
      "outputs": [
        {
          "internalType": "address[]",
          "name": "",
          "type": "address[]"
        }
      ],
      "stateMutability": "view",
      "type": "function"
    },
    {
      "inputs": [
        {
          "internalType": "address",
          "name": "source",
          "type": "address"
        },
        {
          "internalType": "address",
          "name": "measure",
          "type": "address"
        },
        {
          "internalType": "address",
          "name": "dripToken",
          "type": "address"
        }
      ],
      "name": "getBalanceDrip",
      "outputs": [
        {
          "internalType": "uint256",
          "name": "dripRatePerSecond",
          "type": "uint256"
        },
        {
          "internalType": "uint128",
          "name": "exchangeRateMantissa",
          "type": "uint128"
        },
        {
          "internalType": "uint32",
          "name": "timestamp",
          "type": "uint32"
        }
      ],
      "stateMutability": "view",
      "type": "function"
    },
    {
      "inputs": [
        {
          "internalType": "address",
          "name": "source",
          "type": "address"
        },
        {
          "internalType": "address",
          "name": "measure",
          "type": "address"
        },
        {
          "internalType": "address",
          "name": "dripToken",
          "type": "address"
        },
        {
          "internalType": "bool",
          "name": "isReferral",
          "type": "bool"
        }
      ],
      "name": "getVolumeDrip",
      "outputs": [
        {
          "internalType": "uint256",
          "name": "periodSeconds",
          "type": "uint256"
        },
        {
          "internalType": "uint256",
          "name": "dripAmount",
          "type": "uint256"
        },
        {
          "internalType": "uint256",
          "name": "periodCount",
          "type": "uint256"
        }
      ],
      "stateMutability": "view",
      "type": "function"
    },
    {
      "inputs": [
        {
          "internalType": "address",
          "name": "source",
          "type": "address"
        },
        {
          "internalType": "address",
          "name": "measure",
          "type": "address"
        },
        {
          "internalType": "address",
          "name": "dripToken",
          "type": "address"
        },
        {
          "internalType": "bool",
          "name": "isReferral",
          "type": "bool"
        },
        {
          "internalType": "uint16",
          "name": "period",
          "type": "uint16"
        }
      ],
      "name": "getVolumeDripPeriod",
      "outputs": [
        {
          "internalType": "uint112",
          "name": "totalSupply",
          "type": "uint112"
        },
        {
          "internalType": "uint112",
          "name": "dripAmount",
          "type": "uint112"
        },
        {
          "internalType": "uint32",
          "name": "endTime",
          "type": "uint32"
        }
      ],
      "stateMutability": "view",
      "type": "function"
    },
    {
      "inputs": [
        {
          "internalType": "address",
          "name": "source",
          "type": "address"
        },
        {
          "internalType": "address",
          "name": "measure",
          "type": "address"
        },
        {
          "internalType": "address",
          "name": "dripToken",
          "type": "address"
        },
        {
          "internalType": "bool",
          "name": "isReferral",
          "type": "bool"
        }
      ],
      "name": "isVolumeDripActive",
      "outputs": [
        {
          "internalType": "bool",
          "name": "",
          "type": "bool"
        }
      ],
      "stateMutability": "view",
      "type": "function"
    },
    {
      "inputs": [
        {
          "components": [
            {
              "internalType": "address",
              "name": "source",
              "type": "address"
            },
            {
              "internalType": "address",
              "name": "measure",
              "type": "address"
            }
          ],
          "internalType": "struct Comptroller.UpdatePair[]",
          "name": "pairs",
          "type": "tuple[]"
        },
        {
          "internalType": "address",
          "name": "user",
          "type": "address"
        },
        {
          "internalType": "uint256",
          "name": "amount",
          "type": "uint256"
        },
        {
          "internalType": "address[]",
          "name": "dripTokens",
          "type": "address[]"
        }
      ],
      "name": "mintAndCaptureVolumeDripsForPairs",
      "outputs": [],
      "stateMutability": "nonpayable",
      "type": "function"
    },
    {
      "inputs": [],
      "name": "owner",
      "outputs": [
        {
          "internalType": "address",
          "name": "",
          "type": "address"
        }
      ],
      "stateMutability": "view",
      "type": "function"
    },
    {
      "inputs": [],
      "name": "renounceOwnership",
      "outputs": [],
      "stateMutability": "nonpayable",
      "type": "function"
    },
    {
      "inputs": [
        {
          "internalType": "address",
          "name": "source",
          "type": "address"
        },
        {
          "internalType": "address",
          "name": "measure",
          "type": "address"
        },
        {
          "internalType": "address",
          "name": "dripToken",
          "type": "address"
        },
        {
          "internalType": "uint256",
          "name": "dripRatePerSecond",
          "type": "uint256"
        }
      ],
      "name": "setBalanceDripRate",
      "outputs": [],
      "stateMutability": "nonpayable",
      "type": "function"
    },
    {
      "inputs": [
        {
          "internalType": "uint256",
          "name": "_time",
          "type": "uint256"
        }
      ],
      "name": "setCurrentTime",
      "outputs": [],
      "stateMutability": "nonpayable",
      "type": "function"
    },
    {
      "inputs": [
        {
          "internalType": "address",
          "name": "source",
          "type": "address"
        },
        {
          "internalType": "address",
          "name": "measure",
          "type": "address"
        },
        {
          "internalType": "address",
          "name": "dripToken",
          "type": "address"
        },
        {
          "internalType": "bool",
          "name": "isReferral",
          "type": "bool"
        },
        {
          "internalType": "uint32",
          "name": "periodSeconds",
          "type": "uint32"
        },
        {
          "internalType": "uint112",
          "name": "dripAmount",
          "type": "uint112"
        }
      ],
      "name": "setVolumeDrip",
      "outputs": [],
      "stateMutability": "nonpayable",
      "type": "function"
    },
    {
      "inputs": [
        {
          "internalType": "bytes4",
          "name": "interfaceId",
          "type": "bytes4"
        }
      ],
      "name": "supportsInterface",
      "outputs": [
        {
          "internalType": "bool",
          "name": "",
          "type": "bool"
        }
      ],
      "stateMutability": "view",
      "type": "function"
    },
    {
      "inputs": [
        {
          "internalType": "address",
          "name": "token",
          "type": "address"
        },
        {
          "internalType": "address",
          "name": "to",
          "type": "address"
        },
        {
          "internalType": "uint256",
          "name": "amount",
          "type": "uint256"
        }
      ],
      "name": "transferOut",
      "outputs": [],
      "stateMutability": "nonpayable",
      "type": "function"
    },
    {
      "inputs": [
        {
          "internalType": "address",
          "name": "newOwner",
          "type": "address"
        }
      ],
      "name": "transferOwnership",
      "outputs": [],
      "stateMutability": "nonpayable",
      "type": "function"
    },
    {
      "inputs": [
        {
          "components": [
            {
              "internalType": "address",
              "name": "source",
              "type": "address"
            },
            {
              "internalType": "address",
              "name": "measure",
              "type": "address"
            }
          ],
          "internalType": "struct Comptroller.UpdatePair[]",
          "name": "pairs",
          "type": "tuple[]"
        }
      ],
      "name": "updateActiveBalanceDripsForPairs",
      "outputs": [],
      "stateMutability": "nonpayable",
      "type": "function"
    },
    {
      "inputs": [
        {
          "components": [
            {
              "internalType": "address",
              "name": "source",
              "type": "address"
            },
            {
              "internalType": "address",
              "name": "measure",
              "type": "address"
            }
          ],
          "internalType": "struct Comptroller.UpdatePair[]",
          "name": "pairs",
          "type": "tuple[]"
        }
      ],
      "name": "updateActiveVolumeDripsForPairs",
      "outputs": [],
      "stateMutability": "nonpayable",
      "type": "function"
    },
    {
      "inputs": [
        {
          "components": [
            {
              "internalType": "address",
              "name": "source",
              "type": "address"
            },
            {
              "internalType": "address",
              "name": "measure",
              "type": "address"
            }
          ],
          "internalType": "struct Comptroller.UpdatePair[]",
          "name": "pairs",
          "type": "tuple[]"
        },
        {
          "internalType": "address",
          "name": "user",
          "type": "address"
        },
        {
          "internalType": "address[]",
          "name": "dripTokens",
          "type": "address[]"
        }
      ],
      "name": "updateAndClaimDrips",
      "outputs": [
        {
          "components": [
            {
              "internalType": "address",
              "name": "dripToken",
              "type": "address"
            },
            {
              "internalType": "uint256",
              "name": "balance",
              "type": "uint256"
            }
          ],
          "internalType": "struct Comptroller.DripTokenBalance[]",
          "name": "",
          "type": "tuple[]"
        }
      ],
      "stateMutability": "nonpayable",
      "type": "function"
    },
    {
      "inputs": [
        {
          "components": [
            {
              "internalType": "address",
              "name": "source",
              "type": "address"
            },
            {
              "internalType": "address",
              "name": "measure",
              "type": "address"
            }
          ],
          "internalType": "struct Comptroller.UpdatePair[]",
          "name": "pairs",
          "type": "tuple[]"
        },
        {
          "internalType": "address",
          "name": "user",
          "type": "address"
        },
        {
          "internalType": "address[]",
          "name": "dripTokens",
          "type": "address[]"
        }
      ],
      "name": "updateDrips",
      "outputs": [
        {
          "components": [
            {
              "internalType": "address",
              "name": "dripToken",
              "type": "address"
            },
            {
              "internalType": "uint256",
              "name": "balance",
              "type": "uint256"
            }
          ],
          "internalType": "struct Comptroller.DripTokenBalance[]",
          "name": "",
          "type": "tuple[]"
        }
      ],
      "stateMutability": "nonpayable",
      "type": "function"
    }
  ],
  "transactionHash": "0x6b7267655d4dd52d5ffcd9e14bff90c8100695a6b3b38158b303ab74f15875bf",
  "args": [],
  "solcInputHash": "04bab1880b11cad777b55a50f694e9c0",
  "bytecode": "0x60806040523480156200001157600080fd5b506200001c62000022565b620002b0565b600054610100900460ff16806200003e57506200003e620000cb565b806200004d575060005460ff16155b620000755760405162461bcd60e51b81526004016200006c9062000262565b60405180910390fd5b600054610100900460ff16158015620000a1576000805460ff1961ff0019909116610100171660011790555b620000ab620000e9565b620000b562000173565b8015620000c8576000805461ff00191690555b50565b6000620000e3306200025860201b62001a911760201c565b15905090565b600054610100900460ff168062000105575062000105620000cb565b8062000114575060005460ff16155b620001335760405162461bcd60e51b81526004016200006c9062000262565b600054610100900460ff16158015620000b5576000805460ff1961ff0019909116610100171660011790558015620000c8576000805461ff001916905550565b600054610100900460ff16806200018f57506200018f620000cb565b806200019e575060005460ff16155b620001bd5760405162461bcd60e51b81526004016200006c9062000262565b600054610100900460ff16158015620001e9576000805460ff1961ff0019909116610100171660011790555b6000620001f56200025e565b603380546001600160a01b0319166001600160a01b038316908117909155604051919250906000907f8be0079c531659141344cd1fd0a4f28419497f9722a3daafe3b4186f6b6457e0908290a3508015620000c8576000805461ff001916905550565b3b151590565b3390565b6020808252602e908201527f496e697469616c697a61626c653a20636f6e747261637420697320616c72656160408201526d191e481a5b9a5d1a585b1a5e995960921b606082015260800190565b6149f180620002c06000396000f3fe608060405234801561001057600080fd5b50600436106101da5760003560e01c8063715018a611610104578063ce730461116100a2578063e5f83b7011610071578063e5f83b7014610423578063e72edc2814610436578063f28219ac14610456578063f2fde38b14610469576101da565b8063ce730461146103d7578063d7840aad146103ea578063e2937c77146103fd578063e37288ec14610410576101da565b80639aebef23116100de5780639aebef231461037c578063b22109571461039e578063b7e6810a146103b1578063c35185df146103c4576101da565b8063715018a61461034c57806384f8f31c146103545780638da5cb5b14610367576101da565b80633632c1f41161017c578063503bd4801161014b578063503bd480146102f15780635d68ae22146103045780635e19bad514610317578063626e76b41461032a576101da565b80633632c1f4146102895780633a6c8a2c1461029c57806343fcacd0146102bc5780634d7f3db0146102de576101da565b80631dc2d7a4116101b85780631dc2d7a41461023057806322f8e566146102435780632697a1a91461025657806334de6d1914610276576101da565b806301ffc9a7146101df578063078d3b79146102085780631a6eae671461021d575b600080fd5b6101f26101ed3660046141c9565b61047c565b6040516101ff919061430e565b60405180910390f35b61021b610216366004613ea7565b6104b6565b005b61021b61022b3660046140b9565b6105cf565b61021b61023e36600461412e565b6106a2565b61021b61025136600461420c565b610706565b610269610264366004613e5d565b61070b565b6040516101ff9190614269565b61021b610284366004613ea7565b610765565b61021b610297366004614086565b6108e6565b6102af6102aa3660046140b9565b610988565b6040516101ff91906142b6565b6102cf6102ca366004613c6e565b6109c9565b6040516101ff939291906148cf565b61021b6102ec366004613f7b565b610b03565b61021b6102ff366004613e0d565b610ceb565b61021b610312366004613e0d565b610db8565b61021b610325366004613b55565b610e68565b61033d610338366004613bac565b610eb3565b6040516101ff93929190614926565b61021b611024565b61021b610362366004613d6d565b6110ad565b61036f611208565b6040516101ff919061423c565b61038f61038a366004613b10565b611217565b6040516101ff93929190614901565b61021b6103ac366004613ee7565b61126e565b61021b6103bf366004614086565b61146c565b61021b6103d2366004613ce1565b611561565b6102af6103e5366004613fb0565b611656565b6101f26103f8366004613bac565b611732565b61021b61040b366004613c04565b61178f565b61021b61041e366004613f2e565b6117db565b610269610431366004613adc565b611868565b610449610444366004613adc565b61188d565b6040516101ff91906148f8565b6102af610464366004613f2e565b6118b9565b61021b610477366004613ac1565b6119d0565b60006001600160e01b031982166301ffc9a760e01b14806104b057506001600160e01b03198216600162a1cb1960e01b0319145b92915050565b6104be611a97565b6001600160a01b03166104cf611208565b6001600160a01b0316146104fe5760405162461bcd60e51b81526004016104f590614750565b60405180910390fd5b60405163a9059cbb60e01b81526001600160a01b0384169063a9059cbb9061052c9085908590600401614250565b602060405180830381600087803b15801561054657600080fd5b505af115801561055a573d6000803e3d6000fd5b505050506040513d601f19601f8201168201806040525081019061057e91906141ad565b50816001600160a01b0316836001600160a01b03167f175984d55e63e57889870f617ac3d775087f5bf4e22126f7ae4145152113d79c836040516105c291906148f8565b60405180910390a3505050565b60005b835181101561069c576105e361391a565b8482815181106105ef57fe5b60200260200101519050600081602001516001600160a01b03166370a08231866040518263ffffffff1660e01b815260040161062b919061423c565b60206040518083038186803b15801561064357600080fd5b505afa158015610657573d6000803e3d6000fd5b505050506040513d601f19601f8201168201806040525081019061067b9190614224565b905061069282600001518360200151878488611a9b565b50506001016105d2565b50505050565b60005b84518110156106ff576106b661391a565b8582815181106106c257fe5b602002602001015190506106e181600001518260200151878787611b2b565b6106f681600001518260200151878787611ba3565b506001016106a5565b5050505050565b606a55565b6060811561073c576001600160a01b03841660009081526066602052604090206107359084611c1f565b905061075e565b6001600160a01b03841660009081526065602052604090206107359084611c1f565b9392505050565b600061076f611a97565b6001600160a01b0384166000908152606860205260409020549091506107959083611c43565b6001600160a01b038085166000908152606860209081526040808320949094556069815283822092881682529190915220546107d19083611c43565b6001600160a01b038085166000818152606960209081526040808320948a168352939052829020929092555163a9059cbb60e01b815263a9059cbb9061081d9087908690600401614250565b602060405180830381600087803b15801561083757600080fd5b505af115801561084b573d6000803e3d6000fd5b505050506040513d601f19601f8201168201806040525081019061086f91906141ad565b61088b5760405162461bcd60e51b81526004016104f590614614565b836001600160a01b0316836001600160a01b0316826001600160a01b03167f76db671dc988a5ba4764a06da6bfc2a6a8df0d7d373cc205a687084b4a8492f0856040516108d891906148f8565b60405180910390a450505050565b60005b8151811015610984576108fa61391a565b82828151811061090657fe5b6020026020010151905061094d6065600083600001516001600160a01b03166001600160a01b03168152602001908152602001600020826000015183602001516000611c6b565b80516001600160a01b0316600090815260666020908152604090912082519183015161097b92906001611c6b565b506001016108e9565b5050565b60606109938461146c565b61099e8484846105cf565b6109a7846108e6565b6109b484846000856106a2565b60606109c084846118b9565b95945050505050565b60008060006109d6613931565b8515610a6357506001600160a01b0380891660009081526066602090815260408083208b8516845260019081018352818420948b16845293825280832061ffff89168452909301815290829020825160608101845290546001600160701b038082168352600160701b82041692820192909252600160e01b90910463ffffffff1691810191909152610ae6565b506001600160a01b0380891660009081526065602090815260408083208b8516845260019081018352818420948b16845293825280832061ffff89168452909301815290829020825160608101845290546001600160701b038082168352600160701b82041692820192909252600160e01b90910463ffffffff16918101919091525b80516020820151604090920151909a919950975095505050505050565b6000610b0d611a97565b90506000836001600160a01b03166370a08231876040518263ffffffff1660e01b8152600401610b3d919061423c565b60206040518083038186803b158015610b5557600080fd5b505afa158015610b69573d6000803e3d6000fd5b505050506040513d601f19601f82011682018060405250810190610b8d9190614224565b90506000846001600160a01b03166318160ddd6040518163ffffffff1660e01b815260040160206040518083038186803b158015610bca57600080fd5b505afa158015610bde573d6000803e3d6000fd5b505050506040513d601f19601f82011682018060405250810190610c029190614224565b90506060610c108487611f55565b6001600160a01b0385166000908152606760205260409020909150610c3f90858885610c3a611f86565b611f8c565b610c4c84878a8685611a9b565b6060610c5885886120b0565b6001600160a01b0386166000908152606560205260408120919250610c81919087908a90611c6b565b610c8e85888b8b85611b2b565b6001600160a01b03861615610ce0576060610ca986896120e1565b6001600160a01b0387166000908152606660205260409020909150610cd190878a6001611c6b565b610cde8689898c85611ba3565b505b505050505050505050565b610cf3611a97565b6001600160a01b0316610d04611208565b6001600160a01b031614610d2a5760405162461bcd60e51b81526004016104f590614750565b610d6b838383610d40610d3b611f86565b612112565b610d498761213c565b6001600160a01b038a16600090815260676020526040902094939291906121ef565b816001600160a01b0316836001600160a01b0316856001600160a01b03167f1198b38b5e10d4b1e4cd2866dd9bc4e71e32c649b6ff51addd64e01fb6a6d5ad846040516108d891906148f8565b610dc0611a97565b6001600160a01b0316610dd1611208565b6001600160a01b031614610df75760405162461bcd60e51b81526004016104f590614750565b6001600160a01b0384166000908152606760205260409020610e1b9084848461230b565b816001600160a01b0316836001600160a01b0316856001600160a01b03167f4cf47603ce110cd8061678afe77c525be4ca073f4640f629292afcef7be49259846040516108d891906148f8565b610e70611a97565b6001600160a01b0316610e81611208565b6001600160a01b031614610ea75760405162461bcd60e51b81526004016104f590614750565b61069c84848484612408565b6000806000610ec0613951565b8415610f6057506001600160a01b0380881660009081526066602090815260408083208a851684526001018252808320938916835292815290829020825160a081018452600282015463ffffffff80821683526001600160701b036401000000008304811695840195909552600160901b9091048416948201949094526003909101549182166060820152600160701b9091049091166080820152610ff6565b506001600160a01b0380881660009081526065602090815260408083208a851684526001018252808320938916835292815290829020825160a081018452600282015463ffffffff80821683526001600160701b036401000000008304811695840195909552600160901b9091048416948201949094526003909101549182166060820152600160701b90910490911660808201525b8051602082015160809092015163ffffffff9182169a6001600160701b039093169950169650945050505050565b61102c611a97565b6001600160a01b031661103d611208565b6001600160a01b0316146110635760405162461bcd60e51b81526004016104f590614750565b6033546040516000916001600160a01b0316907f8be0079c531659141344cd1fd0a4f28419497f9722a3daafe3b4186f6b6457e0908390a3603380546001600160a01b0319169055565b6110b5611a97565b6001600160a01b03166110c6611208565b6001600160a01b0316146110ec5760405162461bcd60e51b81526004016104f590614750565b60008415611121576001600160a01b038816600090815260666020526040902061111a908888878787612494565b905061114a565b6001600160a01b0388166000908152606560205260409020611147908888878787612494565b90505b856001600160a01b0316876001600160a01b0316896001600160a01b03167f0ee63f5b7633ec1ad321f6f89b83ec0993c2cc680112d7b153759242a655ed4388888860405161119b9392919061433a565b60405180910390a4856001600160a01b0316876001600160a01b0316896001600160a01b03167f5030027163f1655f8ac4c205c22bfe42c59f83e61a7c15da775499920b214314888588886040516111f6949392919061438d565b60405180910390a45050505050505050565b6033546001600160a01b031690565b6001600160a01b03831660009081526067602052604081208190819081906112409087876125a7565b805460019091015490986001600160701b0382169850600160e01b90910463ffffffff169650945050505050565b6001600160a01b0384166112815761069c565b600061128b611a97565b90506000826001600160a01b03166318160ddd6040518163ffffffff1660e01b815260040160206040518083038186803b1580156112c857600080fd5b505afa1580156112dc573d6000803e3d6000fd5b505050506040513d601f19601f820116820180604052508101906113009190614224565b90506000836001600160a01b03166370a08231886040518263ffffffff1660e01b8152600401611330919061423c565b60206040518083038186803b15801561134857600080fd5b505afa15801561135c573d6000803e3d6000fd5b505050506040513d601f19601f820116820180604052508101906113809190614224565b9050606061138e8486611f55565b6001600160a01b03851660009081526067602052604090209091506113b890858786610c3a611f86565b6113c584868a8585611a9b565b6001600160a01b03871615611462576040516370a0823160e01b81526000906001600160a01b038716906370a0823190611403908b9060040161423c565b60206040518083038186803b15801561141b57600080fd5b505afa15801561142f573d6000803e3d6000fd5b505050506040513d601f19601f820116820180604052508101906114539190614224565b9050610ce085878a8486611a9b565b5050505050505050565b6000611476611f86565b905060005b825181101561155c5761148c61391a565b83828151811061149857fe5b602002602001015190506115536067600083600001516001600160a01b03166001600160a01b031681526020019081526020016000208260000151836020015184602001516001600160a01b03166318160ddd6040518163ffffffff1660e01b815260040160206040518083038186803b15801561151557600080fd5b505afa158015611529573d6000803e3d6000fd5b505050506040513d601f19601f8201168201806040525081019061154d9190614224565b87611f8c565b5060010161147b565b505050565b611569611a97565b6001600160a01b031661157a611208565b6001600160a01b0316146115a05760405162461bcd60e51b81526004016104f590614750565b82156115d0576001600160a01b03861660009081526066602052604090206115cb90868685856125d3565b6115f5565b6001600160a01b03861660009081526065602052604090206115f590868685856125d3565b836001600160a01b0316856001600160a01b0316876001600160a01b03167f401facfe78ba5adec5aae1404afebf8e3a77cb5dfdf5b4b611504d626d9a2ed58686866040516116469392919061433a565b60405180910390a4505050505050565b6060806116e98787808060200260200160405190810160405280939291908181526020016000905b828210156116aa5761169b604083028601368190038101906141f1565b8152602001906001019061167e565b50505050508686868080602002602001604051908101604052809392919081815260200183836020028082843760009201919091525061098892505050565b9050611728858585808060200260200160405190810160405280939291908181526020018383602002808284376000920191909152506117db92505050565b9695505050505050565b60008115611764576001600160a01b038516600090815260666020526040902061175d908585612643565b9050611787565b6001600160a01b038516600090815260656020526040902061175d908585612643565b949350505050565b611797611a97565b6001600160a01b03166117a8611208565b6001600160a01b0316146117ce5760405162461bcd60e51b81526004016104f590614750565b6106ff8585858585612665565b60005b815181101561155c57611860838383815181106117f757fe5b60200260200101516069600086868151811061180f57fe5b60200260200101516001600160a01b03166001600160a01b031681526020019081526020016000206000876001600160a01b03166001600160a01b0316815260200190815260200160002054610765565b6001016117de565b6001600160a01b038216600090815260676020526040902060609061075e9083611c1f565b6001600160a01b0380821660009081526069602090815260408083209386168352929052205492915050565b606080825167ffffffffffffffff811180156118d457600080fd5b5060405190808252806020026020018201604052801561190e57816020015b6118fb61391a565b8152602001906001900390816118f35790505b50905060005b83518110156119c857604051806040016040528085838151811061193457fe5b60200260200101516001600160a01b031681526020016069600087858151811061195a57fe5b60200260200101516001600160a01b03166001600160a01b031681526020019081526020016000206000886001600160a01b03166001600160a01b03168152602001908152602001600020548152508282815181106119b557fe5b6020908102919091010152600101611914565b509392505050565b6119d8611a97565b6001600160a01b03166119e9611208565b6001600160a01b031614611a0f5760405162461bcd60e51b81526004016104f590614750565b6001600160a01b038116611a355760405162461bcd60e51b81526004016104f5906144e2565b6033546040516001600160a01b038084169216907f8be0079c531659141344cd1fd0a4f28419497f9722a3daafe3b4186f6b6457e090600090a3603380546001600160a01b0319166001600160a01b0392909216919091179055565b3b151590565b3390565b60005b8151811015611b23576000828281518110611ab557fe5b6020908102919091018101516001600160a01b03808a1660009081526067845260408082208b841683526001908101865281832093851683529290945292909220918201549092506001600160701b031615611b1957611b19818989858a8a612714565b5050600101611a9e565b505050505050565b60005b8151811015611b23576000828281518110611b4557fe5b6020908102919091018101516001600160a01b03808a1660009081526065845260408082208b841683526001018552808220928416825291909352822090925090611b999082908a908a9086908b8b61279e565b5050600101611b2e565b60005b8151811015611b23576000828281518110611bbd57fe5b6020908102919091018101516001600160a01b03808a1660009081526066845260408082208b84168352600190810186528183209385168352929094529290922090925090611c159082908a908a9086908b8b61279e565b5050600101611ba6565b6001600160a01b038116600090815260208390526040902060609061075e90612810565b600082821115611c655760405162461bcd60e51b81526004016104f5906145dd565b50900390565b6001600160a01b0382166000908152602085905260408120611c8c906128f0565b90506000611c98611f86565b6001600160a01b038516600090815260208890526040812091925090611cbd906128f6565b90505b6001600160a01b03811615801590611d0a57506001600160a01b0385166000908152602088905260409020611cf4906128f0565b6001600160a01b0316816001600160a01b031614155b15611f4c576001600160a01b0380861660009081526001890160209081526040808320938516835292905290812090611d428361213c565b600383015490915063ffffffff600160701b909104811690600090611d6d9085908890869061291316565b600385015490915063ffffffff838116600160701b9092041614611f035763ffffffff82166000908152600185016020526040908190205490516001600160a01b03808816928c821692918e16917f5af66de08c3f6079fb9df0df086b4866eef80830affd2db8a278a87a3c98317891611df8918e9189916001600160701b03909116908990614361565b60405180910390a4846001600160a01b0316896001600160a01b03168b6001600160a01b03167f5030027163f1655f8ac4c205c22bfe42c59f83e61a7c15da775499920b2143148b88600301600e9054906101000a900463ffffffff168960010160008b600301600e9054906101000a900463ffffffff1663ffffffff1663ffffffff168152602001908152602001600020600001600e9054906101000a90046001600160701b03168a60010160008c600301600e9054906101000a900463ffffffff1663ffffffff1663ffffffff168152602001908152602001600020600001601c9054906101000a900463ffffffff16604051611efa949392919061438d565b60405180910390a45b8083148015611f1957611f198b8b888c8c612665565b6001600160a01b038a16600090815260208d9052604090209597508795611f409087612939565b95505050505050611cc0565b50505050505050565b6001600160a01b03808316600090815260676020908152604080832093851683529290522060609061075e90612810565b606a5490565b6001600160a01b0383166000908152602086905260408120611fad906128f0565b6001600160a01b038516600090815260208890526040812091925090611fd2906128f6565b90505b6001600160a01b0381161580159061201f57506001600160a01b0385166000908152602088905260409020612009906128f0565b6001600160a01b0316816001600160a01b031614155b15611f4c576001600160a01b03808616600090815260018901602090815260408083209385168352929052908120906120578361213c565b905060006120678388888561295c565b9050818114801561207e5761207e8a8a8789612408565b6001600160a01b038916600090815260208c90526040902094955085946120a59086612939565b945050505050611fd5565b6001600160a01b03808316600090815260656020908152604080832093851683529290522060609061075e90612810565b6001600160a01b03808316600090815260666020908152604080832093851683529290522060609061075e90612810565b600064010000000082106121385760405162461bcd60e51b81526004016104f59061481b565b5090565b600080826001600160a01b03166370a08231306040518263ffffffff1660e01b815260040161216b919061423c565b60206040518083038186803b15801561218357600080fd5b505afa158015612197573d6000803e3d6000fd5b505050506040513d601f19601f820116820180604052508101906121bb9190614224565b6001600160a01b0384166000908152606860205260409020549091508181106121e5576000611787565b6117878282611c43565b6001600160a01b03851660009081526020879052604090206122119085612b0c565b61222d5760405162461bcd60e51b81526004016104f5906146cd565b6122da856001600160a01b03166318160ddd6040518163ffffffff1660e01b815260040160206040518083038186803b15801561226957600080fd5b505afa15801561227d573d6000803e3d6000fd5b505050506040513d601f19601f820116820180604052508101906122a19190614224565b6001600160a01b03808816600090815260018a0160209081526040808320938a168352929052209063ffffffff80861690859061295c16565b5050506001600160a01b03928316600090815260019094016020908152604080862093909416855291909152912055565b6001600160a01b038316600090815260208590526040902061232d9083612b0c565b1561234a5760405162461bcd60e51b81526004016104f59061440f565b6001600160a01b038316600090815260208590526040902054612388576001600160a01b038316600090815260208590526040902061238890612b5d565b6001600160a01b03831660009081526020859052604090206123aa9083612ba1565b6001600160a01b03808416600090815260018601602090815260408083209386168352929052206123da90612c69565b6001600160a01b03928316600090815260019094016020908152604080862093909416855291909152912055565b612444838383612419610d3b611f86565b6124228761213c565b6001600160a01b038a1660009081526067602052604090209493929190612c7f565b816001600160a01b0316836001600160a01b0316856001600160a01b03167fbbd41ee308597dd699317716979d8ce8edde7cdde9471c26bfab7752e1186c9460405160405180910390a450505050565b6001600160a01b03851660009081526020879052604081206124b69086612b0c565b156124d35760405162461bcd60e51b81526004016104f590614898565b6001600160a01b038616600090815260208890526040902054612511576001600160a01b038616600090815260208890526040902061251190612b5d565b6001600160a01b03861660009081526020889052604090206125339086612ba1565b6001600160a01b038087166000908152600189016020908152604080832093891683529290522061256690858585612d0e565b505050506001600160a01b0391821660009081526001939093016020908152604080852092909316845252902060030154600160701b900463ffffffff1690565b6001600160a01b0391821660009081526001939093016020908152604080852092909316845252902090565b6001600160a01b03841660009081526020869052604090206125f59084612b0c565b6126115760405162461bcd60e51b81526004016104f590614655565b6001600160a01b03808516600090815260018701602090815260408083209387168352929052206106ff908383612e5a565b6001600160a01b03821660009081526020849052604081206117879083612b0c565b8115612694576001600160a01b038516600090815260666020526040902061268f90858584612ec9565b6126b8565b6001600160a01b03851660009081526065602052604090206126b890858584612ec9565b826001600160a01b0316846001600160a01b0316866001600160a01b03167f9684c938581734d57a998217c38505f0c4fc95afd0af9da2c97b9822ee7a66c885604051612705919061430e565b60405180910390a45050505050565b6000612721878484612eec565b6001600160801b031690508015611f4c5761273d848483612ef9565b50836001600160a01b0316856001600160a01b0316876001600160a01b03167f782be3085b3ef7b927740f3ed02f7393ee3f20b8fe87595484dbf65c5be4230d868560405161278d929190614250565b60405180910390a450505050505050565b60006127ab888484612feb565b90508015611462576127be858483612ef9565b50846001600160a01b0316866001600160a01b0316886001600160a01b03167f06c65e2aee0f9ad46bde72ca6800e5b29333356dc073eba0e3995ffc980148f78787866040516111f693929190614319565b606080826000015467ffffffffffffffff8111801561282e57600080fd5b50604051908082528060200260200182016040528015612858578160200160208202803683370190505b50600160008181529085016020526040812054919250906001600160a01b03165b6001600160a01b0381161580159061289b57506001600160a01b038116600114155b156128e757808383815181106128ad57fe5b6001600160a01b03928316602091820292909201810191909152918116600090815260018088019093526040902054929091019116612879565b50909392505050565b50600190565b60016000818152910160205260409020546001600160a01b031690565b600061291f84846131f9565b1561292f5761073584848461322f565b5060009392505050565b6001600160a01b0380821660009081526001840160205260409020541692915050565b600184015460009063ffffffff848116600160e01b90920416141561298357506000611787565b6001850154600090600160e01b900463ffffffff16156129b4576001860154600160e01b900463ffffffff166129b6565b835b905060006129c48583611c43565b60018801549091506000906001600160701b0316156129f05760018801546001600160701b0316612a01565b612a01670de0b6b3a76400006134ff565b905060008083118015612a145750885415155b15612a6e578854612a26908490613524565b905085811115612a335750845b6000808911612a43576000612a4d565b612a4d828a61355e565b9050612a6a612a656001600160701b0385168361357f565b6134ff565b9250505b6001890180546001600160701b0319166001600160701b038481169190911791829055612aa891612a6591600160701b909104168361357f565b89600101600e6101000a8154816001600160701b0302191690836001600160701b03160217905550612ad987612112565b60018a01805463ffffffff92909216600160e01b026001600160e01b039092169190911790559350505050949350505050565b60006001600160a01b038216600114801590612b3057506001600160a01b03821615155b801561075e5750506001600160a01b03908116600090815260019290920160205260409091205416151590565b805415612b7c5760405162461bcd60e51b81526004016104f590614785565b60016000818152918101602052604090912080546001600160a01b0319169091179055565b6001600160a01b038116600114801590612bc357506001600160a01b03811615155b612bdf5760405162461bcd60e51b81526004016104f59061448c565b6001600160a01b0381811660009081526001840160205260409020541615612c195760405162461bcd60e51b81526004016104f5906147f4565b60016000818152838201602052604080822080546001600160a01b039586168085529284208054969091166001600160a01b03199687161790559183905281549093169092179091558154019055565b6001018054600160701b600160e01b0319169055565b6001600160a01b0385166000908152602087905260409020612ca29084866135a4565b612cde856001600160a01b03166318160ddd6040518163ffffffff1660e01b815260040160206040518083038186803b15801561226957600080fd5b505050506001600160a01b0391821660009081526001939093016020908152604080852092909316845252812055565b8263ffffffff1660008111612d355760405162461bcd60e51b81526004016104f590614528565b60028501805463ffffffff191663ffffffff86811691909117640100000000600160901b0319166401000000006001600160701b03871602179091556003860180546001600160701b03191690819055612da591612da091600160701b900481169060019061357f16565b61366e565b60038601805463ffffffff60701b191661ffff92909216600160701b90810292909217908190556040805160608101825260008082526001600160701b03978816602080840191825263ffffffff98891684860190815295879004891683526001909b01909a529190912090518154985192516001600160701b031990991690871617600160701b600160e01b03191691909516909102176001600160e01b0316600160e01b95909216949094021790555050565b8163ffffffff1660008111612e815760405162461bcd60e51b81526004016104f590614528565b50600290920180546001600160701b0390931664010000000002640100000000600160901b031963ffffffff90931663ffffffff199094169390931791909116919091179055565b6001600160a01b038316600090815260208590526040902061069c9082846135a4565b6000611787848484613692565b600080612f058561213c565b90506000818411612f165783612f18565b815b6001600160a01b038716600090815260686020526040902054909150612f3e908261357f565b6001600160a01b03808816600090815260686020908152604080832094909455606981528382209289168252919091522054612f7a908261357f565b6001600160a01b038088166000818152606960209081526040808320948b1680845294909152908190209390935591519091907f0f3ed8b918f23095606f705f6253b10267861573421cf05301b0f1f006c92b4490612fda9085906148f8565b60405180910390a395945050505050565b6003830154600090600160701b900463ffffffff1661300c5750600061075e565b6001600160a01b03831660009081526020859052604081205461304790869063ffffffff600160701b820416906001600160701b0316613772565b6003860154909150600160701b900463ffffffff1681156130e2576040518060400160405280613076866134ff565b6001600160701b03908116825263ffffffff8085166020938401526001600160a01b03891660009081528a845260409020845181549590940151909116600160701b0263ffffffff60701b19939092166001600160701b03199094169390931791909116179055613185565b6040805180820182526001600160a01b038716600090815260208990529190912054819061311d90612a65906001600160701b03168861357f565b6001600160701b03908116825263ffffffff8085166020938401526001600160a01b03891660009081528a845260409020845181549590940151909116600160701b0263ffffffff60701b19939092166001600160701b031990941693909317919091161790555b63ffffffff80821660009081526001880160205260409020546131b891612a65916001600160701b031690879061357f16565b63ffffffff9091166000908152600187016020526040902080546001600160701b03929092166001600160701b031990921691909117905590509392505050565b600382015463ffffffff600160701b90910481166000908152600184016020526040902054600160e01b90041681101592915050565b6000838361323d82826131f9565b6132595760405162461bcd60e51b81526004016104f590614861565b6003860154600160701b900463ffffffff1660009081526001870160205260408120546001600160701b0316156132bb57506003860154600160701b9081900463ffffffff166000908152600188016020526040902054046001600160701b03165b84816001600160701b0316111561331e576132d5856134ff565b6003880154600160701b9081900463ffffffff16600090815260018a01602052604090208054600160701b600160e01b0319166001600160701b03841690920291909117905590505b600387015463ffffffff600160701b909104811660009081526001808a01602052604082205460028b0154600160e01b90910484169361337b9291613375919081169061336f908d908890611c4316565b90613829565b9061357f565b60028a01549091506000906133a69061339f90849063ffffffff9081169061352416565b849061357f565b60038b01549091506133c990612a65906001600160701b0390811690871661357f565b60038b0180546001600160701b0319166001600160701b0392909216919091179081905561340e90612da090600160701b900463ffffffff9081169060019061357f16565b60038b01805463ffffffff60701b191661ffff92909216600160701b02919091179055604080516060810182526000815260028c01546001600160701b0364010000000090910416602082015290810161346783612112565b63ffffffff90811690915260038c0154600160701b908190048216600090815260018e01602090815260409182902085518154928701519690930151909416600160e01b026001600160e01b036001600160701b03968716909402600160701b600160e01b03199387166001600160701b03199093169290921792909216179190911617905593909316955050505050509392505050565b6000600160701b82106121385760405162461bcd60e51b81526004016104f5906147ab565b600082613533575060006104b0565b8282028284828161354057fe5b041461075e5760405162461bcd60e51b81526004016104f59061470f565b60008061357384670de0b6b3a7640000613524565b9050611787818461385b565b60008282018381101561075e5760405162461bcd60e51b81526004016104f59061455f565b6001600160a01b0381166001148015906135c657506001600160a01b03811615155b6135e25760405162461bcd60e51b81526004016104f59061448c565b6001600160a01b0382811660009081526001850160205260409020548116908216146136205760405162461bcd60e51b81526004016104f5906144b5565b6001600160a01b039081166000818152600185016020526040808220805495851683529082208054959094166001600160a01b03199586161790935552805490911690558054600019019055565b60006201000082106121385760405162461bcd60e51b81526004016104f590614446565b6001600160a01b0382166000908152600284016020526040812080546001600160801b0316806136d9576136cd670de0b6b3a76400006134ff565b6001600160701b031690505b60018601546000906136f4906001600160701b031683611c43565b9050600061370a613705878461389d565b6138be565b604080516020808201835260018c01546001600160701b031682526001600160a01b039a909a1660009081526002909b01909952909820965187546fffffffffffffffffffffffffffffffff19166001600160801b0390911617909655509495945050505050565b6003830154600090819063ffffffff600160701b90910481169085161080156137ba575063ffffffff841660009081526001860160205260409020546001600160701b031615155b156117875763ffffffff841660009081526001860160205260408120546137f4906001600160801b038616906001600160701b031661355e565b63ffffffff8616600090815260018801602052604090205490915061172890600160701b90046001600160701b03168261389d565b600080821161384a5760405162461bcd60e51b81526004016104f590614696565b81838161385357fe5b049392505050565b600061075e83836040518060400160405280601a81526020017f536166654d6174683a206469766973696f6e206279207a65726f0000000000008152506138e3565b6000806138aa8385613524565b905061178781670de0b6b3a764000061385b565b6000600160801b82106121385760405162461bcd60e51b81526004016104f590614596565b600081836139045760405162461bcd60e51b81526004016104f591906143bc565b50600083858161391057fe5b0495945050505050565b604080518082019091526000808252602082015290565b604080516060810182526000808252602082018190529181019190915290565b6040805160a08101825260008082526020820181905291810182905260608101829052608081019190915290565b80356001600160a01b03811681146104b057600080fd5b600082601f8301126139a6578081fd5b81356139b96139b482614963565b61493c565b8181529150602080830190848101818402860182018710156139da57600080fd5b60005b84811015613a01576139ef888361397f565b845292820192908201906001016139dd565b505050505092915050565b600082601f830112613a1c578081fd5b8135613a2a6139b482614963565b8181529150602080830190848101604080850287018301881015613a4d57600080fd5b60005b85811015613a7457613a628984613a80565b85529383019391810191600101613a50565b50505050505092915050565b600060408284031215613a91578081fd5b613a9b604061493c565b9050613aa7838361397f565b8152613ab6836020840161397f565b602082015292915050565b600060208284031215613ad2578081fd5b61075e838361397f565b60008060408385031215613aee578081fd5b613af8848461397f565b9150613b07846020850161397f565b90509250929050565b600080600060608486031215613b24578081fd5b613b2e858561397f565b9250613b3d856020860161397f565b9150613b4c856040860161397f565b90509250925092565b60008060008060808587031215613b6a578081fd5b613b74868661397f565b9350613b83866020870161397f565b9250613b92866040870161397f565b9150613ba1866060870161397f565b905092959194509250565b60008060008060808587031215613bc1578384fd5b613bcb868661397f565b9350613bda866020870161397f565b9250613be9866040870161397f565b91506060850135613bf98161499b565b939692955090935050565b600080600080600060a08688031215613c1b578081fd5b613c25878761397f565b9450613c34876020880161397f565b9350613c43876040880161397f565b92506060860135613c538161499b565b9150613c62876080880161397f565b90509295509295909350565b600080600080600060a08688031215613c85578081fd5b613c8f878761397f565b9450613c9e876020880161397f565b9350613cad876040880161397f565b92506060860135613cbd8161499b565b9150608086013561ffff81168114613cd3578182fd5b809150509295509295909350565b60008060008060008060c08789031215613cf9578384fd5b8635613d0481614983565b95506020870135613d1481614983565b94506040870135613d2481614983565b93506060870135613d348161499b565b92506080870135613d44816149a9565b915060a08701356001600160701b0381168114613d5f578182fd5b809150509295509295509295565b600080600080600080600060e0888a031215613d87578485fd5b8735613d9281614983565b96506020880135613da281614983565b95506040880135613db281614983565b94506060880135613dc28161499b565b93506080880135613dd2816149a9565b925060a08801356001600160701b0381168114613ded578182fd5b915060c0880135613dfd816149a9565b8091505092959891949750929550565b60008060008060808587031215613e22578182fd5b8435613e2d81614983565b93506020850135613e3d81614983565b92506040850135613e4d81614983565b9396929550929360600135925050565b600080600060608486031215613e71578081fd5b8335613e7c81614983565b92506020840135613e8c81614983565b91506040840135613e9c8161499b565b809150509250925092565b600080600060608486031215613ebb578081fd5b8335613ec681614983565b92506020840135613ed681614983565b929592945050506040919091013590565b60008060008060808587031215613efc578182fd5b8435613f0781614983565b93506020850135613f1781614983565b9250604085013591506060850135613bf981614983565b60008060408385031215613f40578182fd5b613f4a848461397f565b9150602083013567ffffffffffffffff811115613f65578182fd5b613f7185828601613996565b9150509250929050565b60008060008060808587031215613f90578182fd5b613f9a868661397f565b935060208501359250613b92866040870161397f565b600080600080600060608688031215613fc7578283fd5b853567ffffffffffffffff80821115613fde578485fd5b818801915088601f830112613ff1578485fd5b813581811115613fff578586fd5b60208a81604084028601011115614014578687fd5b80840198508197506140288b828c0161397f565b965060408a013593508284111561403d578485fd5b838a0193508a601f850112614050578485fd5b8335915082821115614060578485fd5b8a818284028601011115614072578485fd5b979a96995094975050909401935090919050565b600060208284031215614097578081fd5b813567ffffffffffffffff8111156140ad578182fd5b61178784828501613a0c565b6000806000606084860312156140cd578081fd5b833567ffffffffffffffff808211156140e4578283fd5b6140f087838801613a0c565b94506020860135915061410282614983565b90925060408501359080821115614117578283fd5b5061412486828701613996565b9150509250925092565b60008060008060808587031215614143578182fd5b843567ffffffffffffffff8082111561415a578384fd5b61416688838901613a0c565b95506020870135915061417882614983565b9093506040860135925060608601359080821115614194578283fd5b506141a187828801613996565b91505092959194509250565b6000602082840312156141be578081fd5b815161075e8161499b565b6000602082840312156141da578081fd5b81356001600160e01b03198116811461075e578182fd5b600060408284031215614202578081fd5b61075e8383613a80565b60006020828403121561421d578081fd5b5035919050565b600060208284031215614235578081fd5b5051919050565b6001600160a01b0391909116815260200190565b6001600160a01b03929092168252602082015260400190565b6020808252825182820181905260009190848201906040850190845b818110156142aa5783516001600160a01b031683529284019291840191600101614285565b50909695505050505050565b602080825282518282018190526000919060409081850190868401855b8281101561430157815180516001600160a01b031685528601518685015292840192908501906001016142d3565b5091979650505050505050565b901515815260200190565b92151583526001600160a01b03919091166020830152604082015260600190565b921515835263ffffffff9190911660208301526001600160701b0316604082015260600190565b931515845263ffffffff9290921660208401526001600160701b03166040830152606082015260800190565b931515845263ffffffff92831660208501526001600160701b0391909116604084015216606082015260800190565b6000602080835283518082850152825b818110156143e8578581018301518582016040015282016143cc565b818111156143f95783604083870101525b50601f01601f1916929092016040019392505050565b6020808252601e908201527f42616c616e6365447269704d616e616765722f647269702d6163746976650000604082015260600190565b60208082526026908201527f53616665436173743a2076616c756520646f65736e27742066697420696e203160408201526536206269747360d01b606082015260800190565b6020808252600f908201526e496e76616c6964206164647265737360881b604082015260600190565b602080825260139082015272496e76616c696420707265764164647265737360681b604082015260600190565b60208082526026908201527f4f776e61626c653a206e6577206f776e657220697320746865207a65726f206160408201526564647265737360d01b606082015260800190565b60208082526019908201527f566f6c756d65447269702f706572696f642d67742d7a65726f00000000000000604082015260600190565b6020808252601b908201527f536166654d6174683a206164646974696f6e206f766572666c6f770000000000604082015260600190565b60208082526027908201527f53616665436173743a2076616c756520646f65736e27742066697420696e20316040820152663238206269747360c81b606082015260800190565b6020808252601e908201527f536166654d6174683a207375627472616374696f6e206f766572666c6f770000604082015260600190565b60208082526021908201527f436f6d7074726f6c6c65722f636c61696d2d7472616e736665722d6661696c656040820152601960fa1b606082015260800190565b60208082526021908201527f566f6c756d65447269704d616e616765722f647269702d6e6f742d61637469766040820152606560f81b606082015260800190565b6020808252601a908201527f536166654d6174683a206469766973696f6e206279207a65726f000000000000604082015260600190565b60208082526022908201527f42616c616e6365447269704d616e616765722f647269702d6e6f742d61637469604082015261766560f01b606082015260800190565b60208082526021908201527f536166654d6174683a206d756c7469706c69636174696f6e206f766572666c6f6040820152607760f81b606082015260800190565b6020808252818101527f4f776e61626c653a2063616c6c6572206973206e6f7420746865206f776e6572604082015260600190565b6020808252600c908201526b105b1c9958591e481a5b9a5d60a21b604082015260600190565b60208082526029908201527f53616665436173743a2076616c756520646f65736e27742066697420696e206160408201526837103ab4b73a18989960b91b606082015260800190565b6020808252600d908201526c105b1c9958591e481859191959609a1b604082015260600190565b60208082526026908201527f53616665436173743a2076616c756520646f65736e27742066697420696e203360408201526532206269747360d01b606082015260800190565b6020808252601a908201527f566f6c756d65447269702f706572696f642d6e6f742d6f766572000000000000604082015260600190565b6020808252601d908201527f566f6c756d65447269704d616e616765722f647269702d616374697665000000604082015260600190565b6001600160701b03938416815291909216602082015263ffffffff909116604082015260600190565b90815260200190565b9283526001600160801b0391909116602083015263ffffffff16604082015260600190565b9283526020830191909152604082015260600190565b60405181810167ffffffffffffffff8111828210171561495b57600080fd5b604052919050565b600067ffffffffffffffff821115614979578081fd5b5060209081020190565b6001600160a01b038116811461499857600080fd5b50565b801515811461499857600080fd5b63ffffffff8116811461499857600080fdfea2646970667358221220a795d5cee6adc87c62c7079637e8aabc0a7c81fd8c25cb803f013c3923d87a0c64736f6c634300060c0033",
  "devdoc": {
    "kind": "dev",
    "methods": {
      "activateBalanceDrip(address,address,address,uint256)": {
        "params": {
          "dripRatePerSecond": "The amount of drip tokens that are awarded each second to the total supply of measure.",
          "dripToken": "The token that is dripped to users.",
          "measure": "The ERC20 token whose balances determines user's share of the drip rate.",
          "source": "The balance drip \"source\"; i.e. a Prize Pool address."
        }
      },
      "activateVolumeDrip(address,address,address,bool,uint32,uint112,uint32)": {
        "params": {
          "dripAmount": "The amount of dripTokens disbursed each period.",
          "dripToken": "The token that is being disbursed",
          "endTime": "The time at which the first period ends.",
          "isReferral": "Whether this volume drip is for referrals",
          "measure": "The Prize Pool controlled token whose volume should be measured",
          "periodSeconds": "The period of the volume drip, in seconds",
          "source": "The Prize Pool for which to bind to"
        }
      },
      "balanceOfDrip(address,address)": {
        "params": {
          "dripToken": "The token that is being disbursed",
          "user": "The user whose balance should be checked."
        },
        "returns": {
          "_0": "The claimable balance of the dripToken by the user."
        }
      },
      "beforeTokenMint(address,uint256,address,address)": {
        "params": {
          "amount": "The amount of tokens they are minting",
          "measure": "The measure token they are minting",
          "referrer": "The user who referred the minting.",
          "to": "The user who is minting the tokens"
        }
      },
      "beforeTokenTransfer(address,address,uint256,address)": {
        "params": {
          "from": "The user who is sending the tokens",
          "measure": "The measure token they are burning",
          "to": "The user who is receiving the tokens"
        }
      },
      "captureClaimsForBalanceDripsForPairs((address,address)[],address,address[])": {
        "params": {
          "dripTokens": "The drip tokens to retrieve claim balances for.",
          "pairs": "The (source, measure) pairs to update.  For each pair all of the balance drips, volume drips, and referral volume drips will be updated.",
          "user": "The user whose drips and balances will be updated."
        }
      },
      "claimDrip(address,address,uint256)": {
        "params": {
          "amount": "The amount of drip token to claim",
          "dripToken": "The drip token to claim",
          "user": "The user for whom to claim the drip tokens"
        }
      },
      "deactivateBalanceDrip(address,address,address,address)": {
        "params": {
          "dripToken": "The token that is dripped to users.",
          "measure": "The ERC20 token whose balances determines user's share of the drip rate.",
          "prevDripToken": "The previous drip token in the balance drip list.  If the dripToken is the first address, then the previous address is the SENTINEL address: 0x0000000000000000000000000000000000000001",
          "source": "The balance drip \"source\"; i.e. a Prize Pool address."
        }
      },
      "deactivateVolumeDrip(address,address,address,bool,address)": {
        "params": {
          "dripToken": "The token that is being disbursed",
          "isReferral": "Whether this volume drip is for referrals",
          "measure": "The Prize Pool controlled token whose volume should be measured",
          "prevDripToken": "The previous drip token in the volume drip list.  Is different for referrals vs non-referral volume drips.",
          "source": "The Prize Pool for which to bind to"
        }
      },
      "getActiveBalanceDripTokens(address,address)": {
        "params": {
          "measure": "The ERC20 token whose balances determines user's share of the drip rate.",
          "source": "The balance drip \"source\"; i.e. a Prize Pool address."
        },
        "returns": {
          "_0": "An array of active Balance Drip token addresses"
        }
      },
      "getActiveVolumeDripTokens(address,address,bool)": {
        "params": {
          "isReferral": "Whether this volume drip is a referral",
          "measure": "The ERC20 token whose volume determines user's share of the drip rate.",
          "source": "The volume drip \"source\"; i.e. a Prize Pool address."
        },
        "returns": {
          "_0": "An array of active Volume Drip token addresses"
        }
      },
      "getBalanceDrip(address,address,address)": {
        "params": {
          "dripToken": "The token that is being dripped to users",
          "measure": "The token that measure's a users share of the drip",
          "source": "The balance drip \"source\"; i.e. Prize Pool"
        },
        "returns": {
          "dripRatePerSecond": "The current drip rate of the balance drip.",
          "exchangeRateMantissa": "The current exchange rate from measure to dripTokens",
          "timestamp": "The timestamp at which the balance drip was last updated."
        }
      },
      "owner()": {
        "details": "Returns the address of the current owner."
      },
      "renounceOwnership()": {
        "details": "Leaves the contract without owner. It will not be possible to call `onlyOwner` functions anymore. Can only be called by the current owner. NOTE: Renouncing ownership will leave the contract without an owner, thereby removing any functionality that is only available to the owner."
      },
      "setBalanceDripRate(address,address,address,uint256)": {
        "params": {
          "dripRatePerSecond": "The new drip rate per second",
          "dripToken": "The token that is dripped to the user",
          "measure": "The token to use to measure a user's share of the drip rate",
          "source": "The balance drip \"source\"; i.e. Prize Pool"
        }
      },
      "setVolumeDrip(address,address,address,bool,uint32,uint112)": {
        "params": {
          "dripAmount": "The amount of tokens to drip for the next period",
          "dripToken": "The token that is being disbursed",
          "isReferral": "Whether this volume drip is a referral",
          "measure": "The token whose volume is being measured",
          "periodSeconds": "The length to use for the next period",
          "source": "The Prize Pool of the volume drip"
        }
      },
      "supportsInterface(bytes4)": {
        "details": "Returns true if this contract implements the interface defined by `interfaceId`. See the corresponding https://eips.ethereum.org/EIPS/eip-165#how-interfaces-are-identified[EIP section] to learn more about how these ids are created. This function call must use less than 30 000 gas."
      },
      "transferOwnership(address)": {
        "details": "Transfers ownership of the contract to a new account (`newOwner`). Can only be called by the current owner."
      },
      "updateAndClaimDrips((address,address)[],address,address[])": {
        "details": "This function will be useful to check the *current* claim balances for a user. Just need to run this as a constant function to see the latest balances. in order to claim the values, this function needs to be run alongside a claimDrip function.",
        "params": {
          "dripTokens": "The drip tokens whose entire balance will be claimed after the update.",
          "pairs": "The (source, measure) pairs of drips to update for the given user",
          "user": "The user for whom to update and claim tokens"
        },
        "returns": {
          "_0": "The claimable balance of each of the passed drip tokens for the user.  These are the post-update balances, and therefore the most accurate."
        }
      },
      "updateDrips((address,address)[],address,address[])": {
        "details": "This function will be useful to check the *current* claim balances for a user. Just need to run this as a constant function to see the latest balances. in order to claim the values, this function needs to be run alongside a claimDrip function.",
        "params": {
          "dripTokens": "The drip tokens whose entire balance will be claimed after the update.",
          "pairs": "The (source, measure) pairs of drips to update for the given user",
          "user": "The user for whom to update and claim tokens"
        },
        "returns": {
          "_0": "The claimable balance of each of the passed drip tokens for the user.  These are the post-update balances, and therefore the most accurate."
        }
      }
    },
    "version": 1
  },
  "userdoc": {
    "events": {
      "BalanceDripActivated(address,address,address,uint256)": {
        "notice": "Emitted when a balance drip is actived"
      },
      "BalanceDripDeactivated(address,address,address)": {
        "notice": "Emitted when a balance drip is deactivated"
      },
      "BalanceDripDripped(address,address,address,address,uint256)": {
        "notice": "Emitted when a balance drip drips tokens"
      },
      "BalanceDripRateSet(address,address,address,uint256)": {
        "notice": "Emitted when a balance drip rate is updated"
      },
      "DripTokenClaimed(address,address,address,uint256)": {
        "notice": "Emitted when a user claims drip tokens"
      },
      "VolumeDripActivated(address,address,address,bool,uint256,uint256)": {
        "notice": "Emitted when a volume drip is activated"
      },
      "VolumeDripDeactivated(address,address,address,bool)": {
        "notice": "Emitted when a volume drip is deactivated."
      },
      "VolumeDripDripped(address,address,address,bool,address,uint256)": {
        "notice": "Emitted when a volue drip drips tokens"
      },
      "VolumeDripPeriodEnded(address,address,address,bool,uint32,uint256,uint256)": {
        "notice": "Emitted when a volume drip period has ended"
      },
      "VolumeDripPeriodStarted(address,address,address,bool,uint32,uint256,uint256)": {
        "notice": "Emitted when a new volume drip period has started"
      },
      "VolumeDripSet(address,address,address,bool,uint256,uint256)": {
        "notice": "Emitted when a volume drip is updated"
      }
    },
    "kind": "user",
    "methods": {
      "activateBalanceDrip(address,address,address,uint256)": {
        "notice": "Activates a balance drip.  Only callable by the owner."
      },
      "activateVolumeDrip(address,address,address,bool,uint32,uint112,uint32)": {
        "notice": "Activates a volume drip.  Volume drips distribute tokens to users based on their share of the activity within a period."
      },
      "balanceOfDrip(address,address)": {
        "notice": "Returns a users claimable balance of drip tokens.  This is the combination of all balance and volume drips."
      },
      "beforeTokenMint(address,uint256,address,address)": {
        "notice": "Called by a \"source\" (i.e. Prize Pool) when a user mints new \"measure\" tokens."
      },
      "beforeTokenTransfer(address,address,uint256,address)": {
        "notice": "Called by a \"source\" (i.e. Prize Pool) when tokens change hands or are burned"
      },
      "claimDrip(address,address,uint256)": {
        "notice": "Claims a drip token on behalf of a user.  If the passed amount is less than or equal to the users drip balance, then they will be transferred that amount.  Otherwise, it fails."
      },
      "deactivateBalanceDrip(address,address,address,address)": {
        "notice": "Deactivates a balance drip.  Only callable by the owner."
      },
      "deactivateVolumeDrip(address,address,address,bool,address)": {
        "notice": "Deactivates a volume drip.  Volume drips distribute tokens to users based on their share of the activity within a period."
      },
      "getActiveBalanceDripTokens(address,address)": {
        "notice": "Gets a list of active balance drip tokens"
      },
      "getActiveVolumeDripTokens(address,address,bool)": {
        "notice": "Gets a list of active volume drip tokens"
      },
      "getBalanceDrip(address,address,address)": {
        "notice": "Returns the state of a balance drip."
      },
      "setBalanceDripRate(address,address,address,uint256)": {
        "notice": "Sets the drip rate for a balance drip.  The drip rate is the number of drip tokens given to the entire supply of measure tokens.  Only callable by the owner."
      },
      "setVolumeDrip(address,address,address,bool,uint32,uint112)": {
        "notice": "Sets the parameters for the *next* volume drip period.  The source, measure, dripToken and isReferral combined are used to uniquely identify a volume drip.  Only callable by the owner."
      },
      "updateAndClaimDrips((address,address)[],address,address[])": {
        "notice": "Updates the given drips for a user and then claims the given drip tokens.  This call will poke all of the drips and update the claim balances for the given user."
      },
      "updateDrips((address,address)[],address,address[])": {
        "notice": "Updates the given drips for a user and then claims the given drip tokens.  This call will poke all of the drips and update the claim balances for the given user."
      }
    },
    "version": 1
  },
  "storageLayout": {
    "storage": [
      {
        "astId": 1397,
        "contract": "contracts/test/ComptrollerHarness.sol:ComptrollerHarness",
        "label": "_initialized",
        "offset": 0,
        "slot": "0",
        "type": "t_bool"
      },
      {
        "astId": 1400,
        "contract": "contracts/test/ComptrollerHarness.sol:ComptrollerHarness",
        "label": "_initializing",
        "offset": 1,
        "slot": "0",
        "type": "t_bool"
      },
      {
        "astId": 3750,
        "contract": "contracts/test/ComptrollerHarness.sol:ComptrollerHarness",
        "label": "__gap",
        "offset": 0,
        "slot": "1",
        "type": "t_array(t_uint256)50_storage"
      },
      {
        "astId": 10,
        "contract": "contracts/test/ComptrollerHarness.sol:ComptrollerHarness",
        "label": "_owner",
        "offset": 0,
        "slot": "51",
        "type": "t_address"
      },
      {
        "astId": 129,
        "contract": "contracts/test/ComptrollerHarness.sol:ComptrollerHarness",
        "label": "__gap",
        "offset": 0,
        "slot": "52",
        "type": "t_array(t_uint256)49_storage"
      },
      {
        "astId": 8831,
        "contract": "contracts/test/ComptrollerHarness.sol:ComptrollerHarness",
        "label": "volumeDrips",
        "offset": 0,
        "slot": "101",
        "type": "t_mapping(t_address,t_struct(State)9964_storage)"
      },
      {
        "astId": 8835,
        "contract": "contracts/test/ComptrollerHarness.sol:ComptrollerHarness",
        "label": "referralVolumeDrips",
        "offset": 0,
        "slot": "102",
        "type": "t_mapping(t_address,t_struct(State)9964_storage)"
      },
      {
        "astId": 8839,
        "contract": "contracts/test/ComptrollerHarness.sol:ComptrollerHarness",
        "label": "balanceDrips",
        "offset": 0,
        "slot": "103",
        "type": "t_mapping(t_address,t_struct(State)9154_storage)"
      },
      {
        "astId": 8843,
        "contract": "contracts/test/ComptrollerHarness.sol:ComptrollerHarness",
        "label": "dripTokenTotalSupply",
        "offset": 0,
        "slot": "104",
        "type": "t_mapping(t_address,t_uint256)"
      },
      {
        "astId": 8849,
        "contract": "contracts/test/ComptrollerHarness.sol:ComptrollerHarness",
        "label": "dripTokenBalances",
        "offset": 0,
        "slot": "105",
        "type": "t_mapping(t_address,t_mapping(t_address,t_uint256))"
      },
      {
        "astId": 17962,
        "contract": "contracts/test/ComptrollerHarness.sol:ComptrollerHarness",
        "label": "time",
        "offset": 0,
        "slot": "106",
        "type": "t_uint256"
      }
    ],
    "types": {
      "t_address": {
        "encoding": "inplace",
        "label": "address",
        "numberOfBytes": "20"
      },
      "t_array(t_uint256)49_storage": {
        "base": "t_uint256",
        "encoding": "inplace",
        "label": "uint256[49]",
        "numberOfBytes": "1568"
      },
      "t_array(t_uint256)50_storage": {
        "base": "t_uint256",
        "encoding": "inplace",
        "label": "uint256[50]",
        "numberOfBytes": "1600"
      },
      "t_bool": {
        "encoding": "inplace",
        "label": "bool",
        "numberOfBytes": "1"
      },
      "t_mapping(t_address,t_address)": {
        "encoding": "mapping",
        "key": "t_address",
        "label": "mapping(address => address)",
        "numberOfBytes": "32",
        "value": "t_address"
      },
      "t_mapping(t_address,t_mapping(t_address,t_struct(State)8882_storage))": {
        "encoding": "mapping",
        "key": "t_address",
        "label": "mapping(address => mapping(address => struct BalanceDrip.State))",
        "numberOfBytes": "32",
        "value": "t_mapping(t_address,t_struct(State)8882_storage)"
      },
      "t_mapping(t_address,t_mapping(t_address,t_struct(State)9444_storage))": {
        "encoding": "mapping",
        "key": "t_address",
        "label": "mapping(address => mapping(address => struct VolumeDrip.State))",
        "numberOfBytes": "32",
        "value": "t_mapping(t_address,t_struct(State)9444_storage)"
      },
      "t_mapping(t_address,t_mapping(t_address,t_uint256))": {
        "encoding": "mapping",
        "key": "t_address",
        "label": "mapping(address => mapping(address => uint256))",
        "numberOfBytes": "32",
        "value": "t_mapping(t_address,t_uint256)"
      },
      "t_mapping(t_address,t_struct(Deposit)9418_storage)": {
        "encoding": "mapping",
        "key": "t_address",
        "label": "mapping(address => struct VolumeDrip.Deposit)",
        "numberOfBytes": "32",
        "value": "t_struct(Deposit)9418_storage"
      },
      "t_mapping(t_address,t_struct(Mapping)22248_storage)": {
        "encoding": "mapping",
        "key": "t_address",
        "label": "mapping(address => struct MappedSinglyLinkedList.Mapping)",
        "numberOfBytes": "32",
        "value": "t_struct(Mapping)22248_storage"
      },
      "t_mapping(t_address,t_struct(State)8882_storage)": {
        "encoding": "mapping",
        "key": "t_address",
        "label": "mapping(address => struct BalanceDrip.State)",
        "numberOfBytes": "32",
        "value": "t_struct(State)8882_storage"
      },
      "t_mapping(t_address,t_struct(State)9154_storage)": {
        "encoding": "mapping",
        "key": "t_address",
        "label": "mapping(address => struct BalanceDripManager.State)",
        "numberOfBytes": "32",
        "value": "t_struct(State)9154_storage"
      },
      "t_mapping(t_address,t_struct(State)9444_storage)": {
        "encoding": "mapping",
        "key": "t_address",
        "label": "mapping(address => struct VolumeDrip.State)",
        "numberOfBytes": "32",
        "value": "t_struct(State)9444_storage"
      },
      "t_mapping(t_address,t_struct(State)9964_storage)": {
        "encoding": "mapping",
        "key": "t_address",
        "label": "mapping(address => struct VolumeDripManager.State)",
        "numberOfBytes": "32",
        "value": "t_struct(State)9964_storage"
      },
      "t_mapping(t_address,t_struct(UserState)8869_storage)": {
        "encoding": "mapping",
        "key": "t_address",
        "label": "mapping(address => struct BalanceDrip.UserState)",
        "numberOfBytes": "32",
        "value": "t_struct(UserState)8869_storage"
      },
      "t_mapping(t_address,t_uint256)": {
        "encoding": "mapping",
        "key": "t_address",
        "label": "mapping(address => uint256)",
        "numberOfBytes": "32",
        "value": "t_uint256"
      },
      "t_mapping(t_uint32,t_struct(Period)9425_storage)": {
        "encoding": "mapping",
        "key": "t_uint32",
        "label": "mapping(uint32 => struct VolumeDrip.Period)",
        "numberOfBytes": "32",
        "value": "t_struct(Period)9425_storage"
      },
      "t_struct(Deposit)9418_storage": {
        "encoding": "inplace",
        "label": "struct VolumeDrip.Deposit",
        "members": [
          {
            "astId": 9415,
            "contract": "contracts/test/ComptrollerHarness.sol:ComptrollerHarness",
            "label": "balance",
            "offset": 0,
            "slot": "0",
            "type": "t_uint112"
          },
          {
            "astId": 9417,
            "contract": "contracts/test/ComptrollerHarness.sol:ComptrollerHarness",
            "label": "period",
            "offset": 14,
            "slot": "0",
            "type": "t_uint32"
          }
        ],
        "numberOfBytes": "32"
      },
      "t_struct(Mapping)22248_storage": {
        "encoding": "inplace",
        "label": "struct MappedSinglyLinkedList.Mapping",
        "members": [
          {
            "astId": 22243,
            "contract": "contracts/test/ComptrollerHarness.sol:ComptrollerHarness",
            "label": "count",
            "offset": 0,
            "slot": "0",
            "type": "t_uint256"
          },
          {
            "astId": 22247,
            "contract": "contracts/test/ComptrollerHarness.sol:ComptrollerHarness",
            "label": "addressMap",
            "offset": 0,
            "slot": "1",
            "type": "t_mapping(t_address,t_address)"
          }
        ],
        "numberOfBytes": "64"
      },
      "t_struct(Period)9425_storage": {
        "encoding": "inplace",
        "label": "struct VolumeDrip.Period",
        "members": [
          {
            "astId": 9420,
            "contract": "contracts/test/ComptrollerHarness.sol:ComptrollerHarness",
            "label": "totalSupply",
            "offset": 0,
            "slot": "0",
            "type": "t_uint112"
          },
          {
            "astId": 9422,
            "contract": "contracts/test/ComptrollerHarness.sol:ComptrollerHarness",
            "label": "dripAmount",
            "offset": 14,
            "slot": "0",
            "type": "t_uint112"
          },
          {
            "astId": 9424,
            "contract": "contracts/test/ComptrollerHarness.sol:ComptrollerHarness",
            "label": "endTime",
            "offset": 28,
            "slot": "0",
            "type": "t_uint32"
          }
        ],
        "numberOfBytes": "32"
      },
      "t_struct(State)8882_storage": {
        "encoding": "inplace",
        "label": "struct BalanceDrip.State",
        "members": [
          {
            "astId": 8871,
            "contract": "contracts/test/ComptrollerHarness.sol:ComptrollerHarness",
            "label": "dripRatePerSecond",
            "offset": 0,
            "slot": "0",
            "type": "t_uint256"
          },
          {
            "astId": 8873,
            "contract": "contracts/test/ComptrollerHarness.sol:ComptrollerHarness",
            "label": "exchangeRateMantissa",
            "offset": 0,
            "slot": "1",
            "type": "t_uint112"
          },
          {
            "astId": 8875,
            "contract": "contracts/test/ComptrollerHarness.sol:ComptrollerHarness",
            "label": "totalDripped",
            "offset": 14,
            "slot": "1",
            "type": "t_uint112"
          },
          {
            "astId": 8877,
            "contract": "contracts/test/ComptrollerHarness.sol:ComptrollerHarness",
            "label": "timestamp",
            "offset": 28,
            "slot": "1",
            "type": "t_uint32"
          },
          {
            "astId": 8881,
            "contract": "contracts/test/ComptrollerHarness.sol:ComptrollerHarness",
            "label": "userStates",
            "offset": 0,
            "slot": "2",
            "type": "t_mapping(t_address,t_struct(UserState)8869_storage)"
          }
        ],
        "numberOfBytes": "96"
      },
      "t_struct(State)9154_storage": {
        "encoding": "inplace",
        "label": "struct BalanceDripManager.State",
        "members": [
          {
            "astId": 9147,
            "contract": "contracts/test/ComptrollerHarness.sol:ComptrollerHarness",
            "label": "activeBalanceDrips",
            "offset": 0,
            "slot": "0",
            "type": "t_mapping(t_address,t_struct(Mapping)22248_storage)"
          },
          {
            "astId": 9153,
            "contract": "contracts/test/ComptrollerHarness.sol:ComptrollerHarness",
            "label": "balanceDrips",
            "offset": 0,
            "slot": "1",
            "type": "t_mapping(t_address,t_mapping(t_address,t_struct(State)8882_storage))"
          }
        ],
        "numberOfBytes": "64"
      },
      "t_struct(State)9444_storage": {
        "encoding": "inplace",
        "label": "struct VolumeDrip.State",
        "members": [
          {
            "astId": 9429,
            "contract": "contracts/test/ComptrollerHarness.sol:ComptrollerHarness",
            "label": "deposits",
            "offset": 0,
            "slot": "0",
            "type": "t_mapping(t_address,t_struct(Deposit)9418_storage)"
          },
          {
            "astId": 9433,
            "contract": "contracts/test/ComptrollerHarness.sol:ComptrollerHarness",
            "label": "periods",
            "offset": 0,
            "slot": "1",
            "type": "t_mapping(t_uint32,t_struct(Period)9425_storage)"
          },
          {
            "astId": 9435,
            "contract": "contracts/test/ComptrollerHarness.sol:ComptrollerHarness",
            "label": "nextPeriodSeconds",
            "offset": 0,
            "slot": "2",
            "type": "t_uint32"
          },
          {
            "astId": 9437,
            "contract": "contracts/test/ComptrollerHarness.sol:ComptrollerHarness",
            "label": "nextDripAmount",
            "offset": 4,
            "slot": "2",
            "type": "t_uint112"
          },
          {
            "astId": 9439,
            "contract": "contracts/test/ComptrollerHarness.sol:ComptrollerHarness",
            "label": "__gap",
            "offset": 18,
            "slot": "2",
            "type": "t_uint112"
          },
          {
            "astId": 9441,
            "contract": "contracts/test/ComptrollerHarness.sol:ComptrollerHarness",
            "label": "totalDripped",
            "offset": 0,
            "slot": "3",
            "type": "t_uint112"
          },
          {
            "astId": 9443,
            "contract": "contracts/test/ComptrollerHarness.sol:ComptrollerHarness",
            "label": "periodCount",
            "offset": 14,
            "slot": "3",
            "type": "t_uint32"
          }
        ],
        "numberOfBytes": "128"
      },
      "t_struct(State)9964_storage": {
        "encoding": "inplace",
        "label": "struct VolumeDripManager.State",
        "members": [
          {
            "astId": 9957,
            "contract": "contracts/test/ComptrollerHarness.sol:ComptrollerHarness",
            "label": "activeVolumeDrips",
            "offset": 0,
            "slot": "0",
            "type": "t_mapping(t_address,t_struct(Mapping)22248_storage)"
          },
          {
            "astId": 9963,
            "contract": "contracts/test/ComptrollerHarness.sol:ComptrollerHarness",
            "label": "volumeDrips",
            "offset": 0,
            "slot": "1",
            "type": "t_mapping(t_address,t_mapping(t_address,t_struct(State)9444_storage))"
          }
        ],
        "numberOfBytes": "64"
      },
      "t_struct(UserState)8869_storage": {
        "encoding": "inplace",
        "label": "struct BalanceDrip.UserState",
        "members": [
          {
            "astId": 8868,
            "contract": "contracts/test/ComptrollerHarness.sol:ComptrollerHarness",
            "label": "lastExchangeRateMantissa",
            "offset": 0,
            "slot": "0",
            "type": "t_uint128"
          }
        ],
        "numberOfBytes": "32"
      },
      "t_uint112": {
        "encoding": "inplace",
        "label": "uint112",
        "numberOfBytes": "14"
      },
      "t_uint128": {
        "encoding": "inplace",
        "label": "uint128",
        "numberOfBytes": "16"
      },
      "t_uint256": {
        "encoding": "inplace",
        "label": "uint256",
        "numberOfBytes": "32"
      },
      "t_uint32": {
        "encoding": "inplace",
        "label": "uint32",
        "numberOfBytes": "4"
      }
    }
  }
}