{
  "address": "0xDc64a140Aa3E981100a9becA4E685f962f0cF6C9",
  "abi": [
    {
      "inputs": [
        {
          "internalType": "contract ERC20Mintable",
          "name": "_asset",
          "type": "address"
        }
      ],
      "stateMutability": "nonpayable",
      "type": "constructor"
    },
    {
      "anonymous": false,
      "inputs": [
        {
          "indexed": true,
          "internalType": "address",
          "name": "owner",
          "type": "address"
        },
        {
          "indexed": true,
          "internalType": "address",
          "name": "spender",
          "type": "address"
        },
        {
          "indexed": false,
          "internalType": "uint256",
          "name": "value",
          "type": "uint256"
        }
      ],
      "name": "Approval",
      "type": "event"
    },
    {
      "anonymous": false,
      "inputs": [
        {
          "indexed": true,
          "internalType": "address",
          "name": "from",
          "type": "address"
        },
        {
          "indexed": true,
          "internalType": "address",
          "name": "to",
          "type": "address"
        },
        {
          "indexed": false,
          "internalType": "uint256",
          "name": "value",
          "type": "uint256"
        }
      ],
      "name": "Transfer",
      "type": "event"
    },
    {
      "inputs": [
        {
          "internalType": "address",
          "name": "owner",
          "type": "address"
        },
        {
          "internalType": "address",
          "name": "spender",
          "type": "address"
        }
      ],
      "name": "allowance",
      "outputs": [
        {
          "internalType": "uint256",
          "name": "",
          "type": "uint256"
        }
      ],
      "stateMutability": "view",
      "type": "function"
    },
    {
      "inputs": [
        {
          "internalType": "address",
          "name": "spender",
          "type": "address"
        },
        {
          "internalType": "uint256",
          "name": "amount",
          "type": "uint256"
        }
      ],
      "name": "approve",
      "outputs": [
        {
          "internalType": "bool",
          "name": "",
          "type": "bool"
        }
      ],
      "stateMutability": "nonpayable",
      "type": "function"
    },
    {
      "inputs": [],
      "name": "balance",
      "outputs": [
        {
          "internalType": "uint256",
          "name": "",
          "type": "uint256"
        }
      ],
      "stateMutability": "view",
      "type": "function"
    },
    {
      "inputs": [
        {
          "internalType": "address",
          "name": "account",
          "type": "address"
        }
      ],
      "name": "balanceOf",
      "outputs": [
        {
          "internalType": "uint256",
          "name": "",
          "type": "uint256"
        }
      ],
      "stateMutability": "view",
      "type": "function"
    },
    {
      "inputs": [],
      "name": "decimals",
      "outputs": [
        {
          "internalType": "uint8",
          "name": "",
          "type": "uint8"
        }
      ],
      "stateMutability": "view",
      "type": "function"
    },
    {
      "inputs": [
        {
          "internalType": "address",
          "name": "spender",
          "type": "address"
        },
        {
          "internalType": "uint256",
          "name": "subtractedValue",
          "type": "uint256"
        }
      ],
      "name": "decreaseAllowance",
      "outputs": [
        {
          "internalType": "bool",
          "name": "",
          "type": "bool"
        }
      ],
      "stateMutability": "nonpayable",
      "type": "function"
    },
    {
      "inputs": [
        {
          "internalType": "uint256",
          "name": "_amount",
          "type": "uint256"
        }
      ],
      "name": "deposit",
      "outputs": [],
      "stateMutability": "nonpayable",
      "type": "function"
    },
    {
      "inputs": [],
      "name": "getPricePerFullShare",
      "outputs": [
        {
          "internalType": "uint256",
          "name": "",
          "type": "uint256"
        }
      ],
      "stateMutability": "view",
      "type": "function"
    },
    {
      "inputs": [
        {
          "internalType": "address",
          "name": "spender",
          "type": "address"
        },
        {
          "internalType": "uint256",
          "name": "addedValue",
          "type": "uint256"
        }
      ],
      "name": "increaseAllowance",
      "outputs": [
        {
          "internalType": "bool",
          "name": "",
          "type": "bool"
        }
      ],
      "stateMutability": "nonpayable",
      "type": "function"
    },
    {
      "inputs": [],
      "name": "name",
      "outputs": [
        {
          "internalType": "string",
          "name": "",
          "type": "string"
        }
      ],
      "stateMutability": "view",
      "type": "function"
    },
    {
      "inputs": [
        {
          "internalType": "uint256",
          "name": "_amount",
          "type": "uint256"
        }
      ],
      "name": "removeLiquidity",
      "outputs": [],
      "stateMutability": "nonpayable",
      "type": "function"
    },
    {
      "inputs": [
        {
          "internalType": "uint256",
          "name": "_vaultFeeMantissa",
          "type": "uint256"
        }
      ],
      "name": "setVaultFeeMantissa",
      "outputs": [],
      "stateMutability": "nonpayable",
      "type": "function"
    },
    {
      "inputs": [],
      "name": "symbol",
      "outputs": [
        {
          "internalType": "string",
          "name": "",
          "type": "string"
        }
      ],
      "stateMutability": "view",
      "type": "function"
    },
    {
      "inputs": [],
      "name": "token",
      "outputs": [
        {
          "internalType": "contract IERC20Upgradeable",
          "name": "",
          "type": "address"
        }
      ],
      "stateMutability": "view",
      "type": "function"
    },
    {
      "inputs": [],
      "name": "totalSupply",
      "outputs": [
        {
          "internalType": "uint256",
          "name": "",
          "type": "uint256"
        }
      ],
      "stateMutability": "view",
      "type": "function"
    },
    {
      "inputs": [
        {
          "internalType": "address",
          "name": "recipient",
          "type": "address"
        },
        {
          "internalType": "uint256",
          "name": "amount",
          "type": "uint256"
        }
      ],
      "name": "transfer",
      "outputs": [
        {
          "internalType": "bool",
          "name": "",
          "type": "bool"
        }
      ],
      "stateMutability": "nonpayable",
      "type": "function"
    },
    {
      "inputs": [
        {
          "internalType": "address",
          "name": "sender",
          "type": "address"
        },
        {
          "internalType": "address",
          "name": "recipient",
          "type": "address"
        },
        {
          "internalType": "uint256",
          "name": "amount",
          "type": "uint256"
        }
      ],
      "name": "transferFrom",
      "outputs": [
        {
          "internalType": "bool",
          "name": "",
          "type": "bool"
        }
      ],
      "stateMutability": "nonpayable",
      "type": "function"
    },
    {
      "inputs": [],
      "name": "vaultFeeMantissa",
      "outputs": [
        {
          "internalType": "uint256",
          "name": "",
          "type": "uint256"
        }
      ],
      "stateMutability": "view",
      "type": "function"
    },
    {
      "inputs": [
        {
          "internalType": "uint256",
          "name": "_shares",
          "type": "uint256"
        }
      ],
      "name": "withdraw",
      "outputs": [],
      "stateMutability": "nonpayable",
      "type": "function"
    }
  ],
  "transactionHash": "0x3ce820e8e66e0c9fafe8e866d94c2fc4ef767c13e26391638030efc7f9e67eaf",
  "args": [
    "0x9fE46736679d2D9a65F0992F2272dE9f3c7fa6e0"
  ],
  "solcInputHash": "04bab1880b11cad777b55a50f694e9c0",
  "bytecode": "0x608060405234801561001057600080fd5b506040516113ae3803806113ae8339818101604052602081101561003357600080fd5b5051606580546001600160a01b0319166001600160a01b0390921691909117905566b1a2bc2ec500006066556113408061006e6000396000f3fe608060405234801561001057600080fd5b50600436106101215760003560e01c806395d89b41116100ad578063b69ef8a811610071578063b69ef8a81461034f578063b6b55f2514610357578063bd3c0bb814610374578063dd62ed3e14610391578063fc0c546a146103bf57610121565b806395d89b41146102ca5780639c8f9f23146102d2578063a457c2d7146102ef578063a9059cbb1461031b578063aae8b65d1461034757610121565b80632e1a7d4d116100f45780632e1a7d4d14610233578063313ce56714610252578063395093511461027057806370a082311461029c57806377c7b8fc146102c257610121565b806306fdde0314610126578063095ea7b3146101a357806318160ddd146101e357806323b872dd146101fd575b600080fd5b61012e6103e3565b6040805160208082528351818301528351919283929083019185019080838360005b83811015610168578181015183820152602001610150565b50505050905090810190601f1680156101955780820380516001836020036101000a031916815260200191505b509250505060405180910390f35b6101cf600480360360408110156101b957600080fd5b506001600160a01b038135169060200135610479565b604080519115158252519081900360200190f35b6101eb610497565b60408051918252519081900360200190f35b6101cf6004803603606081101561021357600080fd5b506001600160a01b0381358116916020810135909116906040013561049d565b6102506004803603602081101561024957600080fd5b5035610524565b005b61025a6105ff565b6040805160ff9092168252519081900360200190f35b6101cf6004803603604081101561028657600080fd5b506001600160a01b038135169060200135610608565b6101eb600480360360208110156102b257600080fd5b50356001600160a01b0316610656565b6101eb610671565b61012e610697565b610250600480360360208110156102e857600080fd5b50356106f8565b6101cf6004803603604081101561030557600080fd5b506001600160a01b038135169060200135610776565b6101cf6004803603604081101561033157600080fd5b506001600160a01b0381351690602001356107de565b6101eb6107f2565b6101eb6107f8565b6102506004803603602081101561036d57600080fd5b5035610874565b6102506004803603602081101561038a57600080fd5b5035610a4b565b6101eb600480360360408110156103a757600080fd5b506001600160a01b0381358116916020013516610a50565b6103c7610a7b565b604080516001600160a01b039092168252519081900360200190f35b60368054604080516020601f600260001961010060018816150201909516949094049384018190048102820181019092528281526060939092909183018282801561046f5780601f106104445761010080835404028352916020019161046f565b820191906000526020600020905b81548152906001019060200180831161045257829003601f168201915b5050505050905090565b600061048d610486610a8a565b8484610a8e565b5060015b92915050565b60355490565b60006104aa848484610b7a565b61051a846104b6610a8a565b61051585604051806060016040528060288152602001611254602891396001600160a01b038a166000908152603460205260408120906104f4610a8a565b6001600160a01b031681526020810191909152604001600020549190610cd7565b610a8e565b5060019392505050565b600061053282606654610d6e565b90506000610562610541610497565b61055c61054e8686610d97565b6105566107f8565b90610df4565b90610e54565b6065546040805163a9059cbb60e01b81523360048201526024810184905290519293506001600160a01b039091169163a9059cbb916044808201926020929091908290030181600087803b1580156105b957600080fd5b505af11580156105cd573d6000803e3d6000fd5b505050506040513d60208110156105e357600080fd5b506105f090503083610ebb565b6105fa3384610fad565b505050565b60385460ff1690565b600061048d610615610a8a565b846105158560346000610626610a8a565b6001600160a01b03908116825260208083019390935260409182016000908120918c1681529252902054906110a9565b6001600160a01b031660009081526033602052604090205490565b600061069261067e610497565b61055c670de0b6b3a76400006105566107f8565b905090565b60378054604080516020601f600260001961010060018816150201909516949094049384018190048102820181019092528281526060939092909183018282801561046f5780601f106104445761010080835404028352916020019161046f565b6065546040805163a9059cbb60e01b81523360048201526024810184905290516001600160a01b039092169163a9059cbb916044808201926020929091908290030181600087803b15801561074c57600080fd5b505af1158015610760573d6000803e3d6000fd5b505050506040513d60208110156105fa57600080fd5b600061048d610783610a8a565b84610515856040518060600160405280602581526020016112e660259139603460006107ad610a8a565b6001600160a01b03908116825260208083019390935260409182016000908120918d16815292529020549190610cd7565b600061048d6107eb610a8a565b8484610b7a565b60665481565b606554604080516370a0823160e01b815230600482015290516000926001600160a01b0316916370a08231916024808301926020929190829003018186803b15801561084357600080fd5b505afa158015610857573d6000803e3d6000fd5b505050506040513d602081101561086d57600080fd5b5051905090565b600061087e6107f8565b606554604080516370a0823160e01b815230600482015290519293506000926001600160a01b03909216916370a0823191602480820192602092909190829003018186803b1580156108cf57600080fd5b505afa1580156108e3573d6000803e3d6000fd5b505050506040513d60208110156108f957600080fd5b5051606554604080516323b872dd60e01b81523360048201523060248201526044810187905290519293506001600160a01b03909116916323b872dd916064808201926020929091908290030181600087803b15801561095857600080fd5b505af115801561096c573d6000803e3d6000fd5b505050506040513d602081101561098257600080fd5b5050606554604080516370a0823160e01b815230600482015290516000926001600160a01b0316916370a08231916024808301926020929190829003018186803b1580156109cf57600080fd5b505afa1580156109e3573d6000803e3d6000fd5b505050506040513d60208110156109f957600080fd5b505190506000610a098284610d97565b90506000610a15610497565b610a20575080610a39565b610a368561055c610a2f610497565b8590610df4565b90505b610a433382610ebb565b505050505050565b606655565b6001600160a01b03918216600090815260346020908152604080832093909416825291909152205490565b6065546001600160a01b031690565b3390565b6001600160a01b038316610ad35760405162461bcd60e51b81526004018080602001828103825260248152602001806112c26024913960400191505060405180910390fd5b6001600160a01b038216610b185760405162461bcd60e51b81526004018080602001828103825260228152602001806111eb6022913960400191505060405180910390fd5b6001600160a01b03808416600081815260346020908152604080832094871680845294825291829020859055815185815291517f8c5be1e5ebec7d5bd14f71427d1e84f3dd0314c0f7b2291e5b200ac8c7c3b9259281900390910190a3505050565b6001600160a01b038316610bbf5760405162461bcd60e51b815260040180806020018281038252602581526020018061129d6025913960400191505060405180910390fd5b6001600160a01b038216610c045760405162461bcd60e51b81526004018080602001828103825260238152602001806111a66023913960400191505060405180910390fd5b610c0f8383836105fa565b610c4c8160405180606001604052806026815260200161120d602691396001600160a01b0386166000908152603360205260409020549190610cd7565b6001600160a01b038085166000908152603360205260408082209390935590841681522054610c7b90826110a9565b6001600160a01b0380841660008181526033602090815260409182902094909455805185815290519193928716927fddf252ad1be2c89b69c2b068fc378daa952ba7f163c4a11628f55a4df523b3ef92918290030190a3505050565b60008184841115610d665760405162461bcd60e51b81526004018080602001828103825283818151815260200191508051906020019080838360005b83811015610d2b578181015183820152602001610d13565b50505050905090810190601f168015610d585780820380516001836020036101000a031916815260200191505b509250505060405180910390fd5b505050900390565b600080610d7b8385610df4565b9050610d8f81670de0b6b3a7640000611103565b949350505050565b600082821115610dee576040805162461bcd60e51b815260206004820152601e60248201527f536166654d6174683a207375627472616374696f6e206f766572666c6f770000604482015290519081900360640190fd5b50900390565b600082610e0357506000610491565b82820282848281610e1057fe5b0414610e4d5760405162461bcd60e51b81526004018080602001828103825260218152602001806112336021913960400191505060405180910390fd5b9392505050565b6000808211610eaa576040805162461bcd60e51b815260206004820152601a60248201527f536166654d6174683a206469766973696f6e206279207a65726f000000000000604482015290519081900360640190fd5b818381610eb357fe5b049392505050565b6001600160a01b038216610f16576040805162461bcd60e51b815260206004820152601f60248201527f45524332303a206d696e7420746f20746865207a65726f206164647265737300604482015290519081900360640190fd5b610f22600083836105fa565b603554610f2f90826110a9565b6035556001600160a01b038216600090815260336020526040902054610f5590826110a9565b6001600160a01b03831660008181526033602090815260408083209490945583518581529351929391927fddf252ad1be2c89b69c2b068fc378daa952ba7f163c4a11628f55a4df523b3ef9281900390910190a35050565b6001600160a01b038216610ff25760405162461bcd60e51b815260040180806020018281038252602181526020018061127c6021913960400191505060405180910390fd5b610ffe826000836105fa565b61103b816040518060600160405280602281526020016111c9602291396001600160a01b0385166000908152603360205260409020549190610cd7565b6001600160a01b0383166000908152603360205260409020556035546110619082610d97565b6035556040805182815290516000916001600160a01b038516917fddf252ad1be2c89b69c2b068fc378daa952ba7f163c4a11628f55a4df523b3ef9181900360200190a35050565b600082820183811015610e4d576040805162461bcd60e51b815260206004820152601b60248201527f536166654d6174683a206164646974696f6e206f766572666c6f770000000000604482015290519081900360640190fd5b6000610e4d83836040518060400160405280601a81526020017f536166654d6174683a206469766973696f6e206279207a65726f0000000000008152506000818361118f5760405162461bcd60e51b8152602060048201818152835160248401528351909283926044909101919085019080838360008315610d2b578181015183820152602001610d13565b50600083858161119b57fe5b049594505050505056fe45524332303a207472616e7366657220746f20746865207a65726f206164647265737345524332303a206275726e20616d6f756e7420657863656564732062616c616e636545524332303a20617070726f766520746f20746865207a65726f206164647265737345524332303a207472616e7366657220616d6f756e7420657863656564732062616c616e6365536166654d6174683a206d756c7469706c69636174696f6e206f766572666c6f7745524332303a207472616e7366657220616d6f756e74206578636565647320616c6c6f77616e636545524332303a206275726e2066726f6d20746865207a65726f206164647265737345524332303a207472616e736665722066726f6d20746865207a65726f206164647265737345524332303a20617070726f76652066726f6d20746865207a65726f206164647265737345524332303a2064656372656173656420616c6c6f77616e63652062656c6f77207a65726fa26469706673582212201d6872286ef4df14c4267956ed195ebda908f8a46097fc5e44379a0a5978b4cf64736f6c634300060c0033",
  "devdoc": {
    "kind": "dev",
    "methods": {
      "allowance(address,address)": {
        "details": "See {IERC20-allowance}."
      },
      "approve(address,uint256)": {
        "details": "See {IERC20-approve}. Requirements: - `spender` cannot be the zero address."
      },
      "balanceOf(address)": {
        "details": "See {IERC20-balanceOf}."
      },
      "decimals()": {
        "details": "Returns the number of decimals used to get its user representation. For example, if `decimals` equals `2`, a balance of `505` tokens should be displayed to a user as `5,05` (`505 / 10 ** 2`). Tokens usually opt for a value of 18, imitating the relationship between Ether and Wei. This is the value {ERC20} uses, unless {_setupDecimals} is called. NOTE: This information is only used for _display_ purposes: it in no way affects any of the arithmetic of the contract, including {IERC20-balanceOf} and {IERC20-transfer}."
      },
      "decreaseAllowance(address,uint256)": {
        "details": "Atomically decreases the allowance granted to `spender` by the caller. This is an alternative to {approve} that can be used as a mitigation for problems described in {IERC20-approve}. Emits an {Approval} event indicating the updated allowance. Requirements: - `spender` cannot be the zero address. - `spender` must have allowance for the caller of at least `subtractedValue`."
      },
      "increaseAllowance(address,uint256)": {
        "details": "Atomically increases the allowance granted to `spender` by the caller. This is an alternative to {approve} that can be used as a mitigation for problems described in {IERC20-approve}. Emits an {Approval} event indicating the updated allowance. Requirements: - `spender` cannot be the zero address."
      },
      "name()": {
        "details": "Returns the name of the token."
      },
      "symbol()": {
        "details": "Returns the symbol of the token, usually a shorter version of the name."
      },
      "totalSupply()": {
        "details": "See {IERC20-totalSupply}."
      },
      "transfer(address,uint256)": {
        "details": "See {IERC20-transfer}. Requirements: - `recipient` cannot be the zero address. - the caller must have a balance of at least `amount`."
      },
      "transferFrom(address,address,uint256)": {
        "details": "See {IERC20-transferFrom}. Emits an {Approval} event indicating the updated allowance. This is not required by the EIP. See the note at the beginning of {ERC20}. Requirements: - `sender` and `recipient` cannot be the zero address. - `sender` must have a balance of at least `amount`. - the caller must have allowance for ``sender``'s tokens of at least `amount`."
      }
    },
    "version": 1
  },
  "userdoc": {
    "kind": "user",
    "methods": {},
    "version": 1
  },
  "storageLayout": {
    "storage": [
      {
        "astId": 1397,
        "contract": "contracts/test/yVaultMock.sol:yVaultMock",
        "label": "_initialized",
        "offset": 0,
        "slot": "0",
        "type": "t_bool"
      },
      {
        "astId": 1400,
        "contract": "contracts/test/yVaultMock.sol:yVaultMock",
        "label": "_initializing",
        "offset": 1,
        "slot": "0",
        "type": "t_bool"
      },
      {
        "astId": 3750,
        "contract": "contracts/test/yVaultMock.sol:yVaultMock",
        "label": "__gap",
        "offset": 0,
        "slot": "1",
        "type": "t_array(t_uint256)50_storage"
      },
      {
        "astId": 1476,
        "contract": "contracts/test/yVaultMock.sol:yVaultMock",
        "label": "_balances",
        "offset": 0,
        "slot": "51",
        "type": "t_mapping(t_address,t_uint256)"
      },
      {
        "astId": 1482,
        "contract": "contracts/test/yVaultMock.sol:yVaultMock",
        "label": "_allowances",
        "offset": 0,
        "slot": "52",
        "type": "t_mapping(t_address,t_mapping(t_address,t_uint256))"
      },
      {
        "astId": 1484,
        "contract": "contracts/test/yVaultMock.sol:yVaultMock",
        "label": "_totalSupply",
        "offset": 0,
        "slot": "53",
        "type": "t_uint256"
      },
      {
        "astId": 1486,
        "contract": "contracts/test/yVaultMock.sol:yVaultMock",
        "label": "_name",
        "offset": 0,
        "slot": "54",
        "type": "t_string_storage"
      },
      {
        "astId": 1488,
        "contract": "contracts/test/yVaultMock.sol:yVaultMock",
        "label": "_symbol",
        "offset": 0,
        "slot": "55",
        "type": "t_string_storage"
      },
      {
        "astId": 1490,
        "contract": "contracts/test/yVaultMock.sol:yVaultMock",
        "label": "_decimals",
        "offset": 0,
        "slot": "56",
        "type": "t_uint8"
      },
      {
        "astId": 1985,
        "contract": "contracts/test/yVaultMock.sol:yVaultMock",
        "label": "__gap",
        "offset": 0,
        "slot": "57",
        "type": "t_array(t_uint256)44_storage"
      },
      {
        "astId": 20462,
        "contract": "contracts/test/yVaultMock.sol:yVaultMock",
        "label": "asset",
        "offset": 0,
        "slot": "101",
        "type": "t_contract(ERC20Upgradeable)1986"
      },
      {
        "astId": 20464,
        "contract": "contracts/test/yVaultMock.sol:yVaultMock",
        "label": "vaultFeeMantissa",
        "offset": 0,
        "slot": "102",
        "type": "t_uint256"
      }
    ],
    "types": {
      "t_address": {
        "encoding": "inplace",
        "label": "address",
        "numberOfBytes": "20"
      },
      "t_array(t_uint256)44_storage": {
        "base": "t_uint256",
        "encoding": "inplace",
        "label": "uint256[44]",
        "numberOfBytes": "1408"
      },
      "t_array(t_uint256)50_storage": {
        "base": "t_uint256",
        "encoding": "inplace",
        "label": "uint256[50]",
        "numberOfBytes": "1600"
      },
      "t_bool": {
        "encoding": "inplace",
        "label": "bool",
        "numberOfBytes": "1"
      },
      "t_contract(ERC20Upgradeable)1986": {
        "encoding": "inplace",
        "label": "contract ERC20Upgradeable",
        "numberOfBytes": "20"
      },
      "t_mapping(t_address,t_mapping(t_address,t_uint256))": {
        "encoding": "mapping",
        "key": "t_address",
        "label": "mapping(address => mapping(address => uint256))",
        "numberOfBytes": "32",
        "value": "t_mapping(t_address,t_uint256)"
      },
      "t_mapping(t_address,t_uint256)": {
        "encoding": "mapping",
        "key": "t_address",
        "label": "mapping(address => uint256)",
        "numberOfBytes": "32",
        "value": "t_uint256"
      },
      "t_string_storage": {
        "encoding": "bytes",
        "label": "string",
        "numberOfBytes": "32"
      },
      "t_uint256": {
        "encoding": "inplace",
        "label": "uint256",
        "numberOfBytes": "32"
      },
      "t_uint8": {
        "encoding": "inplace",
        "label": "uint8",
        "numberOfBytes": "1"
      }
    }
  }
}